:100000000C94D5030C94FD030C94FD030C94FD0398
:100010000C94FD030C94FD030C94FD030C94FD0360
:100020000C94FD030C94FD030C94D3280C94292705
:100030000C94FD030C94FD030C94FD030C94FD0340
:100040000C94FD030C94FD030C94FD030C94FD0330
:100050000C94FD030C94FD030C94FD030C94E12619
:100060000C94FD030C94FD030C94FD030C94FD0310
:100070000C94FD030C94FD030C94FD030C94FD0300
:100080000C94FD030C94FD030C94FD030C94FD03F0
:100090000C94FD030C94FD030C94FD030C94FD03E0
:1000A0000C94FD030C94FD030C94FD03AED580A8C5
:1000B0003FD300408D142002A1C8DA12817FD9F10C
:1000C000DB40A4A6AF05010902A1018501050919BC
:1000D000012908150025019508750181020501090E
:1000E00030093109381581257F750895038106C0CF
:1000F00005010906A1018502050719E029E7150098
:100100002501750195088102050C950175081500FA
:1001100026FF00190029FF810005079506750815BF
:100120000026E700190029E78100C0050C0901A19C
:10013000018504150026FF0319002AFF03950475A5
:10014000108100C000000507206C000000000000C6
:10015000005F00000007000700147F147F14242AAA
:100160007F2A12231308646236495620500008077C
:100170000300001C2241000041221C002A1C7F1C9D
:100180002A08083E0808008070300008080808089F
:10019000000060600020100804023E5149453E0006
:1001A000427F400072494949462141494D33181464
:1001B000127F1027454545393C4A494931412111B3
:1001C00009073649494936464949291E00001400A5
:1001D00000004034000000081422411414141414C8
:1001E000004122140802015909063E415D594E7C26
:1001F0001211127C7F494949363E414141227F41DB
:1002000041413E7F494949417F090909013E414138
:1002100051737F0808087F00417F41002040413F23
:10022000017F081422417F404040407F021C027F32
:100230007F0408107F3E4141413E7F090909063E87
:100240004151215E7F091929462649494932030156
:100250007F01033F4040403F1F2040201F3F403868
:10026000403F631408146303047804036159494D43
:1002700043007F4141410204081020004141417F79
:1002800004020102044040404040000307080020EF
:10029000545478407F2844443838444444283844EF
:1002A00044287F385454541800087E090218A4A426
:1002B0009C787F0804047800447D40002040403D45
:1002C000007F1028440000417F40007C04780478BF
:1002D0007C080404783844444438FC182424181852
:1002E000242418FC7C0804040848545454240404AE
:1002F0003F44243C4040207C1C2040201C3C40309B
:10030000403C44281028444C9090907C4464544CC9
:100310004400083641000000770000004136080024
:1003200002010204023C2623263C08047E04081035
:10033000207E201008082A1C08081C2A0808000033
:10034000FF00FF1414F404FC141417101F00001F06
:1003500010170000FC04F41414141414FFFFFFFF22
:10036000FF7F3E1C1C08AC001980400004030904F8
:1003700012010002EF020140412337800001010217
:10038000030141726475696E6F204C4C43004D69E6
:1003900063726F00000000002300260029002C007B
:1003A0002F000000000200090F0000030401000CF0
:1003B000000000000000000000000000000000003D
:1003C0000000000000250028002B002E0031000056
:1003D000000000240027002A002D0030000404043F
:1003E00004040304050202020204030202020206DC
:1003F00006060606060404020202040404080201BA
:10040000104080401020408040800802040180405D
:10041000201002011080102040402000030C0F30FB
:10042000333C3FC0C3CCCFF0F3FCFF412068696789
:10043000686572202253706565642076616C75650D
:1004400022206D65616E73206120736C6F77657219
:10045000206D6F76696E67207261696E626F7700DA
:100460004272696768746E6573733A0A4C696768AB
:1004700074696E67204D6F64653A0A507573682021
:10048000416374696F6E3A0A524742205370656542
:10049000643A00456E61626C652065787472612013
:1004A00046756E6374696F6E206B65797320696E33
:1004B000204631332B206D6F6465005768656E20D0
:1004C000696E2057415344206D6F64652C2072651E
:1004D000706C61636573204120616E6420442077F5
:1004E000697468204D6F757365204D6F76656D6515
:1004F0006E7473284C202B205220746F2071756904
:10050000636B7377617029005768656E20796F752A
:10051000207072657373206120627574746F6E2C25
:100520002069742077696C6C207374617920686528
:100530006C6420756E74696C206974206973207016
:1005400072657373656420616761696E2E205472F1
:10055000792042202B203C206F72203E00412F4DFD
:100560006964646C6520526F773A20546F67676CDA
:10057000650A422F426F74746F6D20526F773A2074
:100580004261636B005265706C61636573206C61DE
:10059000796F757420776974682074686520736951
:1005A0006465732F636F726E657220627574746F09
:1005B0006E73206265696E67206469726563746931
:1005C0006F6E616C284C202B205220746F20717547
:1005D00069636B7377617029005768656E20686F77
:1005E0006C64696E67204D332C2055702020616E3D
:1005F0006420446F776E2077696C6C20616374208F
:100600006173207363726F6C6C20776865656C2012
:10061000696E73746561642E28546F67676C6561D9
:10062000626C6529004D6F7573652077696C6C206D
:1006300073746179206D6F76696E6720756E746969
:100640006C20627574746F6E20707265737365646C
:1006500020616761696E2E005768656E20796F753D
:10066000207072657373206120202020206D6F75CB
:1006700073652062746E2E2C2069742077696C6C0F
:100680002020737461792068656C6420756E7469CC
:100690006C20796F752020707265737320697420E7
:1006A000616761696E2E000000000000000000001C
:1006B000000000000000002A002B002800000000BD
:1006C000000000000000000000000000000000002A
:1006D000000000000000000000000000000000001A
:1006E000000000000000002C001E02340220022145
:1006F000022202240234002602270225022E02369C
:10070000002D003700380027001E001F00200021A8
:100710000022002300240025002600330233003687
:10072000022E00370238021F0204020502060207E9
:1007300002080209020A020B020C020D020E020F4D
:1007400002100211021202130214021502160217FD
:1007500002180219021A021B021C021D022F00318C
:1007600000300023022D02350004000500060007BA
:1007700000080009000A000B000C000D000E000F1D
:1007800000100011001200130014001500160017CD
:1007900000180019001A001B001C001D002F023158
:1007A0000230023502000000252F11241FBECFEFBA
:1007B000DAE0DEBFCDBF15E0A0E0B1E0E4EAF9E6A3
:1007C00002C005900D92AA3DB107D9F727E0AAED26
:1007D000B5E001C01D92AB35B207E1F713E0C5EDFE
:1007E000D3E004C02197FE010E942230C43DD1070E
:1007F000C9F70E9460290C94B6340C940000FC01E7
:1008000080A5811110C086A581110FC082A581111C
:100810000EC084A581110DC083A581110CC080A9D3
:10082000811109C0089582E0089583E0089584E06D
:10083000089581E0089585E00895FC0185A5811162
:1008400016C086A5811113C087A5811110C081A98A
:1008500081110DC082A581110CC083A5811109C031
:1008600084A5811106C080A9811103C0089583E089
:10087000089585E0089590E080E008950895FC01D2
:100880006093BC008091BC0087FFFCCF8091B900D1
:10089000887F80830895DF92EF92FF920F931F93DA
:1008A000CF93DF93EC01D62E142F8C89882351F03F
:1008B000411127C084E98093BC008091BC0084FD75
:1008C000FCCF1C8A7E0182E1E80EF11C0B8964EAF0
:1008D000C7010E943F048A89883011F0803139F4C1
:1008E000000F0093BB0064E8C7010E943F0480E44E
:1008F000111101C080E08093BB0064E8C7010E9431
:100900003F04D092BB0064E8CE0142960E943F04AF
:10091000123059F48C898F5F8C8BDF91CF911F91AE
:100920000F91FF90EF90DF90089584E98093BC00D1
:100930008091BC0084FDFCCF1C8AEFCFCF92DF9268
:10094000FF920F931F93CF93DF938C01F42EE62F2A
:10095000F0E0EE0FFF1FE955F94FC590D490D80194
:10096000ED91FC910484F585E02D6C2DC80109956D
:10097000EC01892B11F4F11070C0D0FE0CC0D8012D
:10098000ED91FC910484F585E02D4F2D60EEC801BA
:100990000995C82BD92BD1FE0CC0D801ED91FC9143
:1009A0000484F585E02D4F2D61EEC8010995C82B13
:1009B000D92BD2FE0CC0D801ED91FC910484F585B1
:1009C000E02D4F2D62EEC8010995C82BD92BD3FE1F
:1009D0000CC0D801ED91FC910484F585E02D4F2DDC
:1009E00063EEC8010995C82BD92BD4FE0CC0D801E1
:1009F000ED91FC910484F585E02D4F2D64EEC80146
:100A00000995C82BD92BD5FE0CC0D801ED91FC91CE
:100A10000484F585E02D4F2D65EEC8010995C82B9E
:100A2000D92BD6FE0CC0D801ED91FC910484F5853C
:100A3000E02D4F2D66EEC8010995C82BD92BD7FEA6
:100A40000CC0D801ED91FC910484F585E02D4F2D6B
:100A500067EEC8010995C82BD92BCE01DF91CF9144
:100A60001F910F91FF90DF90CF9008950F931F93E8
:100A7000CF93DF93EC0141E00E949E048C01892B0F
:100A800039F0E881F9810284F385E02DCE010995E2
:100A9000C801DF91CF911F910F910895CF93DF93FC
:100AA000FC01A481B58195968C919597882311F0CE
:100AB00096968C9194899817A9F0882399F0A4852B
:100AC000B58517969C91179721E0922717969C93CE
:100AD000A4E2B7E09DE0ED0119929A95E9F7108A3A
:100AE000118A128A848BDF91CF9108950F93CF934F
:100AF000DF93FC01C42F643011F4C0E02FC06930D3
:100B0000E0F7A485B5851596DC91D11120C021119F
:100B1000F4CF21E0260FC11135C0633070F5818913
:100B20008150818B862F63E00E940230911103C0B7
:100B300080898150808B822F90E063E070E00E947A
:100B40000E30892BD1F680898F5F808B07C02223DE
:100B5000C9F1E62FF0E0EC5DF84FC0818C2FDF91FA
:100B6000CF910F91089581E08C9301E020E040E067
:100B7000CF010E947605CD2FF1CF663098F28189A2
:100B80008F5FCFCF6330C8F481898F5F818B862FD1
:100B900063E00E940230911103C080898F5F808BD7
:100BA000822F90E063E070E00E940E30892B09F004
:100BB000A4CF80898150808BA0CF663040F381899B
:100BC0008150E4CF0111A5CFC11197CFA62FB0E07E
:100BD000AC5DB84F8C91882331F21C9201E020E08B
:100BE00041E0CF010E947605B9CFFC01818192815D
:100BF00094838383218532854081A42FA150BB0B30
:100C00002A173B0774F42F5F3F4F32872187AC01CF
:100C10004A5F5F4F2417350771F4019692838183F1
:100C20000895473020F081E090E09483838312821E
:100C300011821286118608950F931F93CF93DF932D
:100C400000D00F92CDB7DEB7DC01AB0119821A825A
:100C50001B82ED91FC910190F081E02D00E010E00D
:100C600020E0BE016F5F7F4F09950F900F900F90AE
:100C7000DF91CF911F910F910895FC018585968595
:100C8000089590E080E00895259A089580E991E024
:100C900008950F931F93CF93DF9340911E074F5FEB
:100CA000342F377030931E07242F217040FD20E829
:100CB00031FD2064347009F02062205FFC01EC01FA
:100CC000239600E011E06485662329F070E0C801F6
:100CD0000E940E306F5F6187322F369F030E30E027
:100CE000311D112431110EC01682662311F061509E
:100CF00061873196CE17DF0731F7DF91CF911F91D2
:100D00000F91089531503683F0CFEF92FF920F93F9
:100D10001F93CF93DF93CDB7DEB762970FB6F894EA
:100D2000DEBF0FBECDBF7C01DC011C968C917A83A7
:100D300069834B835C834D835E830D871E872F877A
:100D40008130F9F4CE0101960E944906188A1A8A68
:100D5000198AD701ED91FC910484F585E02DBE013F
:100D60006F5F7F4FC701099562960FB6F894DEBF9B
:100D70000FBECDBFDF91CF911F910F91FF90EF90EC
:100D800008951C861B861A86198618861F82DECF58
:100D9000EF92FF920F931F93CF93DF93CDB7DEB700
:100DA00062970FB6F894DEBF0FBECDBF7C01DC01A9
:100DB0001C968C917A8369834B835C834D835E831D
:100DC0000D871E872F87813001F5CE0101960E9485
:100DD000490683E0888B1A8A198AD701ED91FC9124
:100DE0000484F585E02DBE016F5F7F4FC701099533
:100DF00062960FB6F894DEBF0FBECDBFDF91CF91E4
:100E00001F910F91FF90EF9008951C861B861A8604
:100E1000198618861F82DDCFDC01FC01EA5AFF4FDC
:100E200081E08083ED91FC9111970480F581E02DA4
:100E3000CD010994DC01ED91FC910084F185E02D58
:100E400040E009940F931F93CF938C01FC0186819E
:100E5000681790F46483C085C60F6C2F6F70C8014B
:100E60000E941A076C2F62956F706061C801CF9164
:100E70001F910F910C941A07CF911F910F91089514
:100E8000FC018781869586958695681740F4658371
:100E90008385680F6770606BCF010C941A07089503
:100EA0001F93CF93DF93D82FC92F142F0E942207AF
:100EB000612F8D2F9C2FDF91CF911F910C944007B4
:100EC000CF93DF93EC018D85882329F081508D87A6
:100ED000DF91CF9108959C818E819817C8F78889FA
:100EE0006827E881F9810084F185E02D42E0CE0198
:100EF00009958C818F5F8C83EBCFCF92DF92EF923D
:100F0000FF920F931F93CF93DF93EC01162FD42EF4
:100F1000F22E1D868F81869586958695081710F08E
:100F20000FEF080FEF2C0E1580F04E2D612FCE0124
:100F30000E945007C12EDC1430F06889CE010E9457
:100F40006007C394F8CFE394EECF4F2D612FCE010D
:100F5000DF91CF911F910F91FF90EF90DF90CF9095
:100F60000C9450070F93CF93DF93EC011B861A86E6
:100F700060E40E941A070F810695069506950150B8
:100F80004E81415020E060E0CE010E947D07DF915C
:100F9000CF910F9108952F923F924F925F926F924F
:100FA0007F928F929F92AF92BF92CF92DF92EF92F9
:100FB000FF920F931F93CF93DF93CDB7DEB729979F
:100FC0000FB6F894DEBF0FBECDBF88879987A8857E
:100FD000B9851E968D919C91009709F456C1FC012C
:100FE0003296549031966490062D10E0095F1F4FA1
:100FF00043E0159507954A95E1F7098331964491A9
:101000003196E491641748F02E2F30E0F901E40F97
:10101000F11D6E171F060CF46DC06D3041F460E0D9
:10102000888599850E94220781E090E030C16A306E
:1010300009F02BC160E0888599850E942207E88528
:10104000F9859189909F002D11246581600F848519
:10105000882349F02781269526952695802F821B87
:10106000860F18162CF0888599850E944007DCCFE2
:10107000A885B9851B963C911B97830F87701B969B
:101080008C931B97201B15962C9315971E96ED910C
:10109000FC9100E0309761F03396E491F0E03796F0
:1010A00033E0F595E7953A95E1F79E9F002D1124E1
:1010B0009FEF920F090FE885F985468141506481C1
:1010C000CF010E947D07A885B9851C968C911C973D
:1010D000813009F0A9CF1B966C911B97660F660FA4
:1010E000660F6F731A966C931A976064CD010E9415
:1010F0001A079ACF7C01B6E0EB0EF11C641BE88561
:10110000F98551894185549F402D11244F83FC015D
:1011100044910196FC018491942F029708F079C0C4
:10112000509EC001519E900D1124689FF001699F4F
:10113000F00D1124EE0EFF1E612CA885B9851496C2
:10114000BC91BC83E885F985F581FD83A885B985C7
:101150001D96BC91BE83E52DF0E0FB83EA83D12C84
:10116000C12C412CF9814F1609F48DC0312CAA24D1
:10117000A394A40CB12CA885B98551968C91519754
:10118000381608F07AC0EE811D96EC931D97842DD9
:10119000832941F015964C9115974F5F6C81CD01D5
:1011A0000E94500747018C0C9D1C212C521409F4FD
:1011B00057C0F4017490662061F00A151B0549F4CC
:1011C000E72DF0E0062C02C0F595E7950A94E2F7CA
:1011D0007E2EA885B98551968C91823081F433207A
:1011E00009F43AC072948FE07822E72DF0E0E55ED2
:1011F000FB4F7490672D888599850E946007672D45
:10120000888599850E9460072394EFEF8E1A9E0AC5
:10121000CDCFF62DF7706F2E19F088E08F1B682E5A
:10122000F70180E050E040E0861731F09491490FDB
:10123000511D8F5F3196F8CFF701E80FF11D5490E3
:10124000049FF001059FF00D149FF00D11242E0F47
:101250003F1FE20EF31E71CFB72DBF707B2EC5CF9F
:10126000912CFF819F1639F060E0888599850E9456
:1012700060079394F6CF33947ECF43948A819B8109
:10128000C80ED91E6FCF6D81EECE90E080E029961A
:101290000FB6F894DEBF0FBECDBFDF91CF911F9187
:1012A0000F91FF90EF90DF90CF90BF90AF909F9005
:1012B0008F907F906F905F904F903F902F90089508
:1012C000FF920F931F93CF93DF93EC01F62E0E94B2
:1012D00036058C01892B71F040E06F2DCE010E9404
:1012E0009E04892B39F0E881F9810284F385E02D91
:1012F000CE010995C801DF91CF911F910F91FF9009
:101300000895CF93DF93DC0130E2360F3830B0F42C
:1013100014962C91149781E090E001C0880F3A95C3
:10132000EAF7442341F0822B14968C9381E090E0FD
:10133000DF91CF91089580958223F6CFFC013696F8
:101340004423C9F00C96EF012991621779F3C8176D
:10135000D907D1F790E080E02191211105C0A80FB5
:10136000B91F16966C93E2CF019686309105A1F7CE
:1013700090E080E0DDCF90E080E02191621305C035
:10138000A80FB91F16961C92D1CF019686309105F1
:10139000A1F7EECF9C01FC013496245F3F4F90E013
:1013A00080E0419141110196DF0111971C92E217F3
:1013B000F307B9F70895DC01FB0188E4808389E431
:1013C000818384E482831D968C911D978F708F5B3F
:1013D00083831D968D919C9124E0969587952A95FF
:1013E000E1F78F708F5B848385E00895DC01FB015A
:1013F00012962C911297848195812817190649F429
:1014000081819081913A39F4982F9D7F81E09130CC
:1014100009F080E008959132E1F78B3029F4828160
:101420001F968C9381E008958A3099F782815096B7
:101430008C93F8CFCF93DF9300D000D0CDB7DEB739
:101440008FB7F89420911F07309120074091210712
:101450005091220729833A834B835C838FBF698134
:101460007A818B819C810F900F900F900F90DF916C
:10147000CF910895CF93DF9300D000D0CDB7DEB7E2
:101480003FB7F8948091F3069091F406A091F50689
:10149000B091F60626B5A89B05C02F3F19F001961E
:1014A000A11DB11D3FBFBA2FA92F982F8827820FEA
:1014B000911DA11DB11D9C01AD0162E0220F331FE2
:1014C000441F551F6A95D1F7CA01B9010F900F90BB
:1014D0000F900F90DF91CF9108954F925F926F928E
:1014E0007F928F929F92AF92CF92DF92EF92FF9274
:1014F0000F931F93CF93DF9300D000D000D0CDB7D0
:10150000DEB73C016D837E830E943A0A69837A8349
:101510008B839C83D3011F968D919C91E981FA81E5
:10152000E81BF90B3A9780F3F894AD81BE81ED91F9
:10153000FC91119705B1006215B11F7D15B91A967E
:10154000CC901A9717968C91BC2DB81B8B2FAD8120
:10155000BE8117968C9317971F969C901F97129693
:101560004D905C9013971D96FC901D971C96EC90E7
:101570001C971E96DC901E97F394E394D3941696D2
:101580009C91169718963C91189719968C901997DC
:101590001B96AC904181D20120E0622F722F7181A5
:1015A000442788947111780F08F47FEF819588940F
:1015B000F0FC470F47958894F1FC470F47958894B6
:1015C000F2FC470F47958894F3FC470F47958894A2
:1015D000F4FC470F47958894F5FC470F479588948E
:1015E000F6FC470F47958894F7FC470F479588947A
:1015F000272FF110242F8C0D422F002C05B900C08D
:1016000047FF15B970812227889400C000C0002CC4
:1016100015B97111790F00C0002C05B900C046FF43
:1016200015B908F47FEF9195889400C000C0002C94
:1016300015B9E0FC270F00C0002C05B900C045FF1C
:1016400015B927958894E1FC270F00C000C0002C35
:1016500015B92795889400C0002C05B900C044FF37
:1016600015B9E2FC270F2795889400C000C0002C14
:1016700015B9E3FC270F00C0002C05B900C043FFDB
:1016800015B927958894E4FC270F00C000C0002CF2
:1016900015B92795889400C0002C05B900C042FFF9
:1016A00015B9E5FC270F2795889400C000C0002CD1
:1016B00015B9E6FC270F00C0002C05B900C041FF9A
:1016C00015B927958894E7FC270F00C000C0002CAF
:1016D00015B92795889400C0002C05B900C040FFBB
:1016E00015B9472FE110422F980D00C000C0002C03
:1016F00015B900C000C0002C05B900C047FF15B9DE
:1017000072812227889400C000C0002C15B9711185
:10171000730F00C0002C05B900C046FF15B908F4CE
:101720007FEFE90DF11D00C000C0002C15B9D0FC01
:10173000270F00C0002C05B900C045FF15B927953B
:101740008894D1FC270F00C000C0002C15B9279544
:10175000889400C0002C05B900C044FF15B9D2FC24
:10176000270F2795889400C000C0002C15B9D3FC22
:10177000270F00C0002C05B900C043FF15B92795FD
:101780008894D4FC270F00C000C0002C15B9279501
:10179000889400C0002C05B900C042FF15B9D5FCE3
:1017A000270F2795889400C000C0002C15B9D6FCDF
:1017B000270F00C0002C05B900C041FF15B92795BF
:1017C0008894D7FC270F00C000C0002C15B92795BE
:1017D000889400C0002C05B900C040FF15B9472F00
:1017E000D110422F319500C000C0002C15B93A0D20
:1017F00000C000C005B900C047FF15B9718122279C
:10180000889400C000C0002C15B97111780F00C079
:10181000002C05B900C046FF15B908F47FEF81958B
:10182000889400C000C0002C15B9F0FC270F00C040
:10183000002C05B900C045FF15B927958894F1FC27
:10184000270F00C000C0002C15B92795889400C050
:10185000002C05B900C044FF15B9F2FC270F2795ED
:10186000889400C000C0002C15B9F3FC270F00C0FD
:10187000002C05B900C043FF15B927958894F4FCE6
:10188000270F00C000C0002C15B92795889400C010
:10189000002C05B900C042FF15B9F5FC270F2795AC
:1018A000889400C000C0002C15B9F6FC270F00C0BA
:1018B000002C05B900C041FF15B927958894F7FCA5
:1018C000270F00C000C0002C15B92795889400C0D0
:1018D000002C05B900C040FF15B9472FF110422F69
:1018E0008C0D00C000C0002C15B9119709F086CEF0
:1018F00020EE31E0D2010E94283069837A838B8305
:101900009C83DC01CB01F4E0B695A795979587956C
:10191000FA95D1F730E020E0B901EAE94E9E040CD7
:10192000611D5E9E600D711D1124650D711D860F78
:10193000971FA11DB11D893EE3E09E07A105B105DA
:1019400008F435C0885E9340A109B10942E0B6951C
:10195000A795979587954A95D1F7A90127E0829F8A
:10196000080E411D929F400D511D1124490F511D1C
:101970002091230730E0820F931F840F951F409121
:101980001F07509120076091210770912207292F8E
:101990003327420F531F611D711D40931F07509342
:1019A0002007609321077093220780932307789480
:1019B0000E943A0AD30150967C936E931F97269605
:1019C0000FB6F894DEBF0FBECDBFDF91CF911F9150
:1019D0000F91FF90EF90DF90CF90AF909F908F90FE
:1019E0007F906F905F904F9008958F929F92AF92EB
:1019F000BF92CF92DF92EF92FF92CF93DF9300D00E
:101A000000D0CDB7DEB76B017C010E943A0A4B01D2
:101A10005C01C114D104E104F104F9F40F900F90BA
:101A20000F900F90DF91CF91FF90EF90DF90CF90CC
:101A3000BF90AF909F908F90089521E0C21AD10877
:101A4000E108F10888EE880E83E0981EA11CB11C05
:101A5000C114D104E104F104E1F20E943A0ADC016C
:101A6000CB0188199909AA09BB09883E9340A105B1
:101A7000B10518F7CECF789484B5826084BD84B563
:101A8000816084BD85B5826085BD85B5816085BD79
:101A9000EEE6F0E0808181608083E1E8F0E0108292
:101AA000808182608083808181608083E0E8F0E0D3
:101AB000808181608083E1E9F0E0808182608083C1
:101AC000808181608083E0E9F0E0808181608083B3
:101AD000E1ECF0E08081846080838081826080839B
:101AE000808181608083E3ECF0E08081816080838D
:101AF000E0ECF0E0808182608083E2ECF0E08081C5
:101B000081608083EAE7F0E0808184608083808167
:101B1000826080838081816080838081806880830F
:101B20000895CF93DF9390E0FC01E450FC4F2491A3
:101B300083529C4FFC0184918823C9F090E0880F68
:101B4000991FFC01E153FC4FA591B491FC01EF53A7
:101B5000FC4FC591D49161110DC09FB7F8948C9141
:101B6000209582238C938881282328839FBFDF912F
:101B7000CF910895623051F49FB7F8943C91822F31
:101B8000809583238C93E8812E2BEFCF8FB7F89429
:101B9000EC912E2B2C938FBFEACF282F30E0F90148
:101BA000EE55FC4F9491F901E450FC4F849123527F
:101BB0003C4FF90124912223E1F0992371F09150D7
:101BC0009F3058F4E92FF0E0E854FB4C0C9422309D
:101BD000909180009F7790938000E22FF0E0EE0FCD
:101BE000FF1FEC56FC4FA591B491EC91E82381E0E6
:101BF00009F480E090E00895909180009F7DEBCF04
:101C000090918000977FE7CF94B59F7794BDE5CF03
:101C100094B59F7DFBCF909190009F77909390001B
:101C2000DCCF909190009F7DF9CF90919000977FAD
:101C3000F5CF9091C0009F779093C000CECF909148
:101C4000C0009F7DF9CF9091C200977F9093C20012
:101C5000C4CF8091EB0681110DC082E08093E7062E
:101C600084E08093E8061092EA061092E90681E08B
:101C70008093EB0687EE96E00895CF93DF938091F3
:101C80000907811164C081E08093FC068093FD0602
:101C900022E037E03093FF062093FE061092010702
:101CA0001092000722E832E03093F9062093F806FC
:101CB000109204071092030710920607109205076E
:101CC000809307078093080781EC809302070E94A6
:101CD000290EFC0181819091FC06482F490F552760
:101CE000551F4830510584F5A281B381109701F545
:101CF00028EF36E03383228320812093FA068093F5
:101D0000FB068091FD06820F80832091FE06A22FA4
:101D1000B091FF068A2F821B8917B0F481813D9113
:101D2000C82FD0E0C25CDE4F38838F5F8183F2CF53
:101D3000ED0118960D90BC91A02D1097C9F728EFD2
:101D400036E039872887D8CF81E08093090788EF6C
:101D500096E0DF91CF910895CF92DF92EF92FF92BC
:101D60000F931F93CF93DF937C016A0110E000E093
:101D70000C151D0581F0EB01D701ED91FC9101904F
:101D8000F081E02D6991C7010995892B21F00F5F42
:101D90001F4FBE01EDCFC801DF91CF911F910F9171
:101DA000FF90EF90DF90CF9008956F927F928F9287
:101DB0009F92AF92BF92CF92DF92EF92FF920F93DA
:101DC0001F93CF93DF93D82EEB017A018091E60623
:101DD000811111C08FEF9FEFDF91CF911F910F9174
:101DE000FF90EF90DF90CF90BF90AF909F908F903B
:101DF0007F906F9008958091E50680FF05C08091E7
:101E0000E00082608093E0008701C12C8AEFB82E49
:101E10004D2D4770942E90E4892E8D2D8072782E52
:101E20004D2D4074642E2AE3A22E0115110519F4DC
:101E3000CC2009F46AC09FB7F8949092E900809191
:101E4000E80085FD0BC09FBFBA94BB2019F261E08A
:101E500070E080E090E00E94F50CE7CF8091F20006
:101E6000282D281B9FBF881679F32017110611F023
:101E70000CF0202F3FB7F8949092E9008091E80091
:101E800085FD02C03FBFD1CF822F90E0081B190B08
:101E9000772029F0215070F01092F100FBCF5C2FD9
:101EA0004D2FD7FE12C0E52FFD2F2C0F2E1308C08B
:101EB000C80FD91FCC2099F0A092E800C12CE2CF26
:101EC00044914093F1003196F1CF215088F3E52FF2
:101ED000F42F41914093F1005E2F4F2FF6CF809168
:101EE000E80085FD08C0A092E800CC24C394011549
:101EF000110541F2E3CF0115110509F0C3CF6620AA
:101F000009F4C0CFA092E800BDCF5D9A84E680932B
:101F1000E406C70161CFAF92BF92CF92DF92EF92FA
:101F2000FF920F931F93CF93DF930F92CDB7DEB73E
:101F30007C0169836A01590141E050E0BE016F5F95
:101F40007F4FFC0183810E94D50E8C0197FD0BC051
:101F5000F7018381A501B60180640E94D50E080FA8
:101F6000191F97FD8C01C8010F90DF91CF911F9130
:101F70000F91FF90EF90DF90CF90BF90AF900895BA
:101F80000F931F93CF93DF93D62FC72F8A010E9401
:101F90003D0E98014D2F5C2F64E0DF91CF911F9192
:101FA0000F910C948B0FCF93DF93EC010E943D0EA9
:101FB000AE014C5F5F4F28E030E062E0DF91CF91EF
:101FC0000C948B0F0F931F93CF93DF93D62FC72FB4
:101FD0008A010E943D0E98014D2F5C2F61E0DF9138
:101FE000CF911F910F910C948B0F4091E20650916D
:101FF000E3062091E0063091E10642175307B4F45E
:102000009091E8009570E1F39091E80092FD19C07D
:102010008093F1008091E2069091E30601968F7320
:102020009927892B19F48EEF8093E8008091E206BE
:102030009091E30601969093E3068093E20681E097
:10204000089580E00895CF92DF92FF920F931F933F
:10205000CF93DF93F82E8A01EB016B01C40ED51EDE
:10206000CC15DD0559F0F7FE12C0FE0184910E94E7
:10207000F50F21968111F4CF0FEF1FEFC801DF910B
:10208000CF911F910F91FF90DF90CF90089588819D
:10209000EECFCF93DF93CDB7DEB769970FB6F89445
:1020A000DEBF0FBECDBFFC01DB018C918F5F8C9337
:1020B0009E012C5F3F4F8BE0D9011D928A95E9F775
:1020C00029E0298384E08A8381E08D8393E09E83E5
:1020D0002A8721E22B878C878D878F8722E2288BA6
:1020E00027E02B8B25E02C8B9E8B20E430E0388F73
:1020F0002F8B898F82818B83858596859A8B898B9F
:10210000838180688D8B49E150E0BE016F5F7F4F16
:1021100080E00E94231069960FB6F894DEBF0FBED0
:10212000CDBFDF91CF910895EF92FF920F931F9350
:10213000CF93DF93EC01FB018081813859F58381D6
:10214000823241F52A81848195812817190611F57B
:102150000B851C85F12CE12C0115110589F0F80186
:10216000448155816281738180E80E9423108F3FF2
:10217000980749F0E80EF91EF80100811181ECCFB3
:1021800081E08F87C701DF91CF911F910F91FF9061
:10219000EF90089590E080E0F6CFEF92FF920F93DA
:1021A0001F93CF93DF937C01162F042F81E0860FBE
:1021B000880F0E94F50F83E00E94F50FE701E10E02
:1021C000F11CCE15DF05B9F007FF13C0FE018491A5
:1021D0000E94F50F182F80E00E94F50F81232196B1
:1021E0008111EFCFDF91CF911F910F91FF90EF9071
:1021F00008958881EDCF81E0F5CF0F931F93CF93A2
:10220000DF930F92CDB7DEB719820E94290EDC0151
:1022100012960D911C910115110589F0D801ED91CF
:10222000FC910280F381E02DBE016F5F7F4FC801FA
:10223000099597FD04C0F80100851185ECCF8981CF
:102240000F90DF91CF911F910F9108959C01E3E3CF
:10225000F7E0819191918217930721F4DF011297A2
:102260001D921C9287E0EB33F80799F7E091310754
:10227000F09132070190F081E02D48E050E063E3F7
:1022800077E081E397E00994E3E3F7E030E020E0D2
:10229000419151912F5F3F4F452BA9F4220F331FDE
:1022A000F901EF5CF84F80839183E0913107F09161
:1022B00032070190F081E02D48E050E063E377E0E1
:1022C00081E397E009942430310511F7EECFCF93E5
:1022D000DF93E0914B07F0914C070084F185E02DEE
:1022E0008BE497E00995EC01892B51F0E0914B07C5
:1022F000F0914C070284F385E02D8BE497E009957B
:10230000CE01DF91CF910895CF93DF93682FE091B5
:102310004B07F0914C070484F585E02D41E08BE4F8
:1023200097E00995EC01892B51F0E0914B07F09172
:102330004C070284F385E02D8BE497E00995CE01EC
:10234000DF91CF910895DB01FC014B962D913D91DA
:102350004C911297219331934193E817F907B1F704
:102360000895FB01DC014C91342F330F330F330FF1
:1023700055E5232F259F020E20E0211D1124822FD9
:10238000242F2074942F907247FD25C021110FC077
:10239000911105C0382F3095282F832F04C08B5AF8
:1023A00090E0282F8BEA80832183928308959111F6
:1023B0000CC02AEA329F030E30E0311D11242BEAB3
:1023C000231B322F2AEA280FE8CF90E0282F2095F0
:1023D000982F80E0E8CF211111C091110CC02AEA9A
:1023E000329F030E30E0311D11242BEA231B80E0C5
:1023F00095E5930FD8CF982F9095D5CF911106C022
:1024000035E5380F20E09BEA981BC7CF2AEA280F52
:1024100090E0952F981B822F20E0C5CFFF920F935D
:102420001F93CF93DF93DB018A01EC91F0E01196CB
:102430006C91119770E012964C9150E0D8012C915C
:1024400030E02E1B3F0BD901B695BA2FAA27B795BE
:10245000A79530FD179623E0B595A7952A95E1F746
:10246000E8012981C22FD0E0C61BD70B9E0136950B
:10247000322F222737952795D0FF02C0295F3F4F83
:10248000C3E035952795CA95E1F7E8011A81C12F78
:10249000D0E0C41BD50B8E011695102F0027179581
:1024A0000795D0FF02C0095F1F4FC3E01595079540
:1024B000CA95E1F7AA0FBB1F220F331F000F111F90
:1024C000DE2FCC27762F6627542F4427FC014B960E
:1024D000D08371835283CA0FDB1F620F731F400FBB
:1024E000511F3396E817F90799F7DF91CF911F91A4
:1024F0000F91FF900895CF93DF93CBE4D7E0E8816D
:10250000F9810084F185E02DCE010995E881F981FA
:102510000284F385E02DCE01DF91CF910994CF9312
:10252000DF9300D000D0CDB7DEB7E8E4F7E09281CA
:1025300099838A836B834C830190F081E02D019015
:10254000F081E02D44E050E0BE016F5F7F4F88E4F2
:1025500097E009950F900F900F900F90DF91CF911A
:102560000895CF93DF93EC01E881F9810680F7812C
:10257000E02D09958C819D81FC01B796C49621E0E0
:102580003191311102C0348531112B87E817F907D9
:10259000B9F78B85882339F0E881F9810190F081C2
:1025A000E02DCE0109958E859F85998B888B8C8532
:1025B000882351F080E50E9484110E9467118FE406
:1025C0000E9484110E9467118D85882361F040E08C
:1025D0006BEF80E00E948F1240E065E080E0DF91C9
:1025E000CF910C948F12DF91CF910895CF93DF9309
:1025F00000D000D0CDB7DEB789839A83A981BA8194
:102600001B961C921B97ED91FC9111970284F38508
:10261000E02DCD010995A981BA81ED91FC91119729
:102620000084F185E02DCD010995A981BA81ED9154
:10263000FC9111970680F781E02DCD010995E98184
:10264000FA818385882349F00190F081E02D019083
:10265000F081E02D89819A810995A981BA815096EE
:102660009C91509751966C915197892F862B21F40C
:1026700052968C91882399F1E981FA818685689F29
:10268000602D112440E0989F802D11240E948F120C
:10269000A981BA8152964C91442309F160E080E00F
:1026A0000E948F12E981FA8166857785611571052F
:1026B000B1F084E190E00E940E30CB01770FAA0BBD
:1026C000BB0B89839A83AB83BC83BC01CD010F9084
:1026D0000F900F900F90DF91CF910C94F50C0F900D
:1026E0000F900F900F90DF91CF91089590914A072E
:1026F00080958923981739F080934A0740E060E07D
:1027000080E00C948F12089590914A07892B9817B6
:1027100039F080934A0740E060E080E00C948F122B
:102720000895CF93FC01A485B58517968C911797D2
:10273000811110C0662389F1693079F1862F877F76
:10274000823079F0663019F1683019F1673019F18B
:1027500020E01AC0643009F16930F9F082E06A3093
:10276000B9F716969C911697211136C01496CC9104
:102770008430E9F49923D9F0CC2389F0411104C0C5
:10278000238981E02827238B822FCF91089588E029
:10279000E8CF80E1E6CF84E0E4CF81E0E2CF4423DC
:1027A00019F0138A2389F0CF81E0838BFBCFCC23F0
:1027B00069F04111E9CF90914A07982319F00E94DE
:1027C0007613C6CF0E9484132C2FDECF4111F7CF92
:1027D0000E94841321E0D8CF843011F49111E2CF0C
:1027E00090914A07982321E079F6B2CFEF92FF92B9
:1027F0000F931F93CF93DF93EC01162FF42E6130CC
:1028000031F08DEF860F833010F0F12C2AC0EC856B
:10281000FD85E580E1101DC02111F7CFF1105FC0EB
:10282000113019F0143009F047C08681882361F116
:1028300021E040E067E0CE010E949113882321F15E
:10284000198A8A89882329F11A8A00E020E040E069
:1028500095C0222309F482C0E12FF0E0EC5DF84F2F
:10286000F0808F2DDF91CF911F910F91FF90EF900E
:10287000089581E0808301E020E040E0612FCE01F7
:102880000E94F613FE2CEDCF8989882361F0198A06
:10289000DCCF113011F41A8BE4CF143009F0B5CF2E
:1028A0008FEF8A8BDECF8FEF113021F0143009F0DB
:1028B000ACCF81E0898BD5CF133019F0153009F0FA
:1028C000A4CF8889811109C08FEF133021F0153012
:1028D00009F09BCF81E0888BC4CF188AB6CF113026
:1028E00079F4EC81FD81868D882399F1198A1A8A01
:1028F00000E020E040E064E0CE010E94F61385CFC6
:10290000143061F4EC81FD81838D882311F1198AE3
:102910001A8A00E020E040E061E0EECF133059F485
:10292000EC81FD81878D8823B9F0188A00E020E0D2
:1029300040E065E0E1CF153009F067CFEC81FD8123
:10294000858D882349F0188A00E020E040E063E0AC
:10295000D3CF198A1A8A59CF188A57CF01115ECF5F
:10296000F11053CFE12FF0E0EC5DF84F8081882328
:1029700009F47FCF108201E020E041E0612FCE0119
:102980000E94F6136ECFEF92FF920F93CF93DF93D7
:10299000EC01F12CE12CEC81FD81EE0DFF1D84A9F1
:1029A0008823A1F020E041E06E2DCE010E9491131A
:1029B000EC85FD85878100E020E041E06E2D8823D5
:1029C00091F0CE010E94760581E08B878FEFE81AA7
:1029D000F80A8DE0E816F104F1F6DF91CF910F913E
:1029E000FF90EF900895CE010E94F613EDCFEF9285
:1029F000FF920F931F93CF93DF93EC01EC81FD8146
:102A000082A9882371F08E859F8501979F878E8785
:102A1000AC85BD852D913C918217930714F43F87B7
:102A20002E8783A9882371F08E859F8501969F87C5
:102A30008E87EC85FD85228133812817390714F4B0
:102A40003F872E87F12CE12C11E0EC81FD81EE0D0A
:102A5000FF1D87A1882399F020E040E06E2DCE0174
:102A60000E949113EC85FD85878100E020E040E025
:102A70006E2D882391F0CE010E9476051B878FEF83
:102A8000E81AF80A8DE0E816F104F9F6DF91CF9123
:102A90001F910F91FF90EF900895CE010E94F613C1
:102AA000EDCFEF920F93CF93FC01CE2D0630C1F006
:102AB00081E00830B1F0E1103FC0033011F0053083
:102AC000B1F480819181892B61F58FEF9FEF033005
:102AD00021F0053061F481E090E09183808310C0A3
:102AE00082E0FB010481002399F0CC2311F0C0E0C7
:102AF00007C090914A07982341F40E948413C02F85
:102B00008C2FCF910F91EF9008950E947613F8CFFC
:102B1000CC2319F00E947613EACF0E948413C1E0FF
:102B2000EFCF11821082033011F0053001F7E12C54
:102B3000CF010E945115E4CF033059F4222399F0BC
:102B400011821082E12C05E021E0CF010E94511595
:102B5000CECF053061F6442331F011821082E12C92
:102B600003E041E0F2CF11821082C1CF10924A07F8
:102B700040E060E080E00C948F12CF93DF93EC0193
:102B80008A819B810E94B2070E947B120E94B61527
:102B90001C861D861F861E86198A188A83E08A8BEA
:102BA0001B8668EE73E080E090E0DF91CF910C949B
:102BB000F50C0F931F93CF93DF93EC01EC81FD8114
:102BC00015A1111116A18D898117C1F01123B1F042
:102BD000888901E08027888BEBE3F7E08DE0DF0157
:102BE0001D928A95E9F71C8A1B8A0E9467110E9430
:102BF000B6158A819B810E94B2070B871D8BDF91DE
:102C0000CF911F910F9108954F925F926F927F9293
:102C1000AF92BF92CF92DF92EF92FF920F931F93EA
:102C2000CF93DF938DE9A82E86E0B82E07EB16E050
:102C3000D501CD91DD915D010E941A0A6B017C01E5
:102C400088810E94CD0D9C018E81811105C081E09B
:102C5000232B29F480E003C081E0232BD9F74E8594
:102C60005F856889798926013701441A550A660A01
:102C7000770A49815A816B817C8144165506660624
:102C8000770670F51986CA86DB86EC86FD86F50127
:102C900032970190F081E02D8781D8018D938D01CD
:102CA00090E081119185D8011C969C93811125C0DB
:102CB0008185F801818FF7EBAF16F6E0BF0609F0CA
:102CC000B7CFDF91CF911F910F91FF90EF90DF90E1
:102CD000CF90BF90AF907F906F905F904F9008958E
:102CE0009F8198878F83292F28272987981759F242
:102CF000CE86DF86E88AF98AC6CF80E0DACF682FF1
:102D0000E0914B07F0914C070484F585E02D40E0FD
:102D10008BE497E00995892B51F0E0914B07F091F6
:102D20004C070284F385E02D8BE497E00994089525
:102D3000EF920F93CF93DF93DC01E22EE42FF0E0CC
:102D40006E0F7F1FEB0188815096CC91509796ECC7
:102D5000980FC11118C09C3090F1011149C01C9608
:102D60000D90BC91A02D1496CC91CC2399F1E1103B
:102D700008C0E55CF84F9081992339F110820E94D8
:102D80007F16C0E01CC09C3040F7433031F08BEF21
:102D9000840F823010F04830A1F70111F2CF149661
:102DA000ED91FC9115971E966D917C911F97042FC4
:102DB000278D458DCD0143960E945115C82F8C2F2C
:102DC000DF91CF910F91EF90089591E090830E9451
:102DD0008411F5CFE55CF84FEE2021F010820E94BF
:102DE0007F16EDCF91E090830E948411C1E0E7CF80
:102DF000E55CF84FC081E3CFFF920F931F93CF9311
:102E0000DF93EC01EC81FD8182A9882371F089892F
:102E10009A8901979A8B898BAE85BF852D913C91BC
:102E20008217930714F43A8B298B83A9882371F0B6
:102E300089899A8901969A8B898BEE85FF852281F3
:102E400033812817390714F43A8B298B10E0FF24BB
:102E5000F39488851817B8F4EC81FD81E10FF11D1A
:102E600087A1882371F0888900E020E0412F63E288
:102E700073E0882311F066E173E0CE010E9498169A
:102E8000FB861F5FE6CFDF91CF911F910F91FF90DF
:102E90000895FF920F931F93CF93DF93EC0110E0FF
:102EA000FF24F39488851817B8F4EC81FD81E10FB5
:102EB000F11D84A9882371F0888900E021E0412F69
:102EC00063E273E0882311F066E173E0CE010E94B3
:102ED0009816FB861F5FE6CFDF91CF911F910F9170
:102EE000FF900895FF920F931F93CF93DF93EC0110
:102EF0001B86EC81FD8182A9811103C083A98823EF
:102F000091F184A1882379F1EC85FD85148210E08C
:102F1000FF24F3948885181778F4E12FF0E0E55C3E
:102F2000F84FF08200E021E0412F63E273E0CE0130
:102F30000E9498161F5FEECFEC81FD81AC85BD85A8
:102F400083A914968C939F01295D3F4F8DE0D90191
:102F5000982F1D929A95E9F7F496DF011D928A95B4
:102F6000E9F781E08B87E881F9810084F185E02D24
:102F7000CE010995E881F9810284F385E02DCE0127
:102F80000995E881F9810680F781E02DCE01099548
:102F90008B85882339F0E881F9810190F081E02D5B
:102FA000CE0109958B899C89009769F0998940E049
:102FB00060E0989F802D1124DF91CF911F910F9198
:102FC000FF900C948F12DF91CF911F910F91FF9082
:102FD0000895DC01ED91FC910190F081E02D0994C0
:102FE0000F931F93CF93DF93EC011B86EC81FD8140
:102FF00082A9811103C083A98823D1F184A18823E8
:10300000B9F1EE85FF85148210E001E0AE85BF8541
:1030100088851817C0F4812F90E09C01255C384FFB
:10302000F9010083EC85FD85E80FF91F808183306D
:1030300041F014969C91911104C0D9011C920E94F8
:103040007F161F5FE3CFEC81FD8183A914968C93DB
:103050009F01295D3F4F8DE0D901982F1D929A95D0
:10306000E9F7F496DF011D928A95E9F781E08B87F5
:10307000E881F9810680F781E02DCE010995E8818C
:10308000F9810084F185E02DCE0109958B85882397
:1030900059F0E881F9810190F081E02DCE01DF91B6
:1030A000CF911F910F910994DF91CF911F910F91B3
:1030B00008950F931F93CF93DF93EC0110E001E08D
:1030C0008885181730F5E12FF0E0AC81BD81AE0F97
:1030D000BF1F97968C918823B1F0AC85BD85AE0F4C
:1030E000BF1F8C91833071F0AE85BF8514969C9183
:1030F000E55CF84F992349F09081992331F01082D3
:103100000E947F160B871F5FDBCF00830E94841114
:10311000F9CFDF91CF911F910F9108950F931F93D6
:10312000CF93DF93EC0110E001E088851817F0F4ED
:10313000212F30E0EC81FD81E20FF31F84A9882369
:1031400099F0EC85FD85E20FF31F8081833059F003
:10315000EE85FF859481911106C0255C384FF901F9
:1031600010820E947F160B871F5FDFCFDF91CF9108
:103170001F910F9108950F931F93CF93DF93EC014D
:103180001B86EC81FD8182A9811103C083A988235C
:10319000D1F184A18823B9F1EE85FF85148210E076
:1031A00001E0AE85BF8588851817C0F4812F90E0B7
:1031B000FC01E55CF84F008314962C9121110CC0A2
:1031C000880F991F2C853D85820F931FDC018D91FF
:1031D0009C9110820E9426111F5FE3CFEC81FD813C
:1031E00083A914968C939F01295D3F4F8DE0D901EF
:1031F000982F1D929A95E9F7F496DF011D928A9512
:10320000E9F781E08B87E881F9810680F781E02D7D
:10321000CE010995E881F9810084F185E02DCE0188
:1032200009958B85882359F0E881F9810190F08117
:10323000E02DCE01DF91CF911F910F910994DF9185
:10324000CF911F910F9108950F931F93CF93DF9309
:10325000EC0110E001E08885181740F5E12FF0E05F
:10326000AC81BD81AE0FBF1F97968C918823C1F0B2
:10327000CF01880F991FAC85BD85A80FB91F8D910F
:103280009C91AE85BF8514962C91E55CF84F222366
:1032900049F02081222331F010820E9426110B87F1
:1032A0001F5FD9CF00830E944411F9CFDF91CF91E6
:1032B0001F910F9108950F931F93CF93DF93EC010C
:1032C00010E001E08885181700F5212F30E0EC812F
:1032D000FD81E20FF31F84A98823A9F0EE85FF8505
:1032E000848181110FC0C901880F991FEC85FD856C
:1032F000E80FF91F80819181255C384FF901108218
:103300000E9426110B871F5FDDCFDF91CF911F91A8
:103310000F910895BF92CF92DF92EF92FF920F9399
:103320001F93CF93DF937C01EB0110E000E0B880A6
:1033300021966701C00ED11EC6010E944534B81601
:1033400021F06B2DC6010E944D340F5F1F4F0430DA
:10335000110569F7DF91CF911F910F91FF90EF90C9
:10336000DF90CF90BF900895CF93DF9300D000D02F
:10337000CDB7DEB7FC018481898385818A8386810C
:103380008B8385E48C83BE016F5F7F4F88E290E082
:103390000E948A190F900F900F900F90DF91CF919C
:1033A0000895CF92DF92EF92FF920F931F93CF93E6
:1033B000DF9300D000D0CDB7DEB78C01FC011182C5
:1033C000108289E190E093838283148215821682B1
:1033D000CE0101966C0188E2E82EF12CC7010E9413
:1033E0004534F60181936F01FFEFEF1AFF0A8CE27B
:1033F000E816F10499F78C81853479F0C8010F90B3
:103400000F900F900F90DF91CF911F910F91FF9030
:10341000EF90DF90CF900C94B4198981F8018483E8
:103420008A8185838B8186830F900F900F900F90F8
:10343000DF91CF911F910F91FF90EF90DF90CF9090
:103440000895CF93DF93EC018A819B810E94B2079C
:1034500087E090E00E947A30FC0187E0DF011D9256
:103460008A95E9F7FF87EE87CF010E94D1190E9464
:103470007B1264EF71E080E090E0DF91CF910C94DB
:10348000F50CCF93DF93EC018A819B810E94B207F8
:1034900087E090E00E947A30FC0187E0DF011D9216
:1034A0008A95E9F7FF87EE87CF010E94D119E3E300
:1034B000F7E088E0DF011D928A95E9F7E091310796
:1034C000F09132070190F081E02D48E050E063E395
:1034D00077E081E397E0099564EF71E080E090E0A8
:1034E000DF91CF910C94F50CCF93DF93EC0187E043
:1034F00090E00E947A30FC0187E0DF011D928A95FE
:10350000E9F7FF8FEE8FCF010E94D11981E088A3E8
:10351000E881F9810480F581E02DCE01DF91CF9122
:103520000994CF93DF9300D000D0CDB7DEB7FC0174
:103530008081898381818A8382818B8383818C834B
:10354000BE016F5F7F4F81E090E00E948A190F906B
:103550000F900F900F90DF91CF910895DF92EF922F
:10356000FF920F931F93CF93DF9300D000D00F9261
:10357000CDB7DEB7FC018481898385818A8386810A
:103580008B8387818C8385E48D8304E110E0CE01F9
:1035900001967C01F701D0809FEFE91AF90AC80172
:1035A0000E944534D81621F06D2DC8010E944D347B
:1035B0000F5F1F4F0931110569F70F900F900F90A2
:1035C0000F900F90DF91CF911F910F91FF90EF908F
:1035D000DF900895CF92DF92EF92FF920F931F93A7
:1035E000CF93DF9300D000D00F92CDB7DEB78C0120
:1035F000FC011182108289E190E09383828314821E
:10360000158216821782CE0101966C0184E1E82EA4
:10361000F12CC7010E944534F60181936F01FFEF41
:10362000EF1AFF0A89E1E816F10499F78D818534D4
:1036300081F0C8010F900F900F900F900F90DF91C5
:10364000CF911F910F91FF90EF90DF90CF900C944E
:10365000AE1A8981F80184838A8185838B81868370
:103660008C8187830F900F900F900F900F90DF91B8
:10367000CF911F910F91FF90EF90DF90CF90089521
:10368000CF93DF93EC018A819B810E94B20787E090
:1036900090E00E947A30FC0187E0DF011D928A955C
:1036A000E9F7FD87EC87CF010E94D11988E090E00F
:1036B0000E947A30FC0188E0DF011D928A95E9F7CB
:1036C000FF87EE87CF010E94EA1AEC85FD85858190
:1036D000888B81E090E09A8B898B1C8A1B8A1D8ADB
:1036E0000E947B120E94B61568EE73E080E090E0C5
:1036F000DF91CF910C94F50CCF93DF93EC0181E037
:1037000090E09F878E87188A198A1A8A1B8A1C8ADA
:1037100088E090E00E947A308C879D870E94EA1AA8
:103720008A819B810E94B207DF91CF910C94B615DC
:10373000CF93DF93EC0188E090E00E947A30FC01A7
:1037400088E0DF011D928A95E9F7F9A3E8A3CF018C
:103750000E94EA1A81E08AA3E881F9810480F58158
:10376000E02DCE01DF91CF910994CF93DF93EC014F
:10377000DB01AB2B81F0FB0101900020E9F73197D1
:10378000AF01461B570BE881F9810280F381E02DE0
:10379000DF91CF91099490E080E0DF91CF9108957F
:1037A000CF93DF93EC01EC81FD8182A9882381F026
:1037B0008A819B810E94B2078E859F8501979F8792
:1037C0008E8797FF05C08A898150990B9F878E87C6
:1037D000EC81FD8183A9882381F08A819B810E94ED
:1037E000B2078E859F8501969F878E872A89281725
:1037F000190609F014F41F861E868E859F85009792
:1038000099F4EC81FD8180A5882321F08C8591E0DD
:1038100089278C8783A5882321F08D8591E08927CE
:103820008D87DF91CF9108958130910509F043C0D4
:10383000EC81FD8180A5882361F080EE0E948411D7
:1038400081EE0E94841165E78BE497E00E943605C3
:1038500022C083A5882311F080EEF3CF86A58823AC
:1038600029F080EE0E94841162E7EECF84A58823C0
:10387000B1F082EE0E94841164E78BE497E00E942D
:1038800036050E94671182E50E9484110E9467112B
:1038900088E20E948411DF91CF910C94671185A575
:1038A000882309F4BECF80EE0E94841182EE0E942C
:1038B000841163E7C9CF029709F0B3CFEC81FD8192
:1038C00080A5882399F180EE0E94841181EE0E94E8
:1038D000841160E78BE497E00E9436050E9467112F
:1038E0006EE571E080E090E00E94F50C60E373E02B
:1038F0008BE497E00E94B51B66E373E08BE497E0EE
:103900000E94B51B6EE571E080E090E00E94F50C2E
:1039100069E373E08BE497E00E94B51B66E373E014
:103920008BE497E0DF91CF910C94B51B83A588239E
:1039300029F080EE0E94841182EE83CF86A5882331
:1039400009F46FCF80EE0E94841182EE0E948411F0
:1039500062E67ACF0C94B51BEF92FF920F931F9300
:10396000CF93DF93EC01F22E132F29858A819B815F
:10397000FC01108AE11007C0EC81FD81E00FF11D10
:10398000328D332319F03FEFFC01308B269F602DE1
:1039900011240E9450076F2D712F8A819B81DF9126
:1039A000CF911F910F91FF90EF900C94AA1CCF9292
:1039B000DF92EF920F931F93CF93DF93CDB7DEB7D4
:1039C00029970FB6F894DEBF0FBECDBF6C01DC01A6
:1039D0001E968D919C911F97009709F05EC01C96D2
:1039E000EC9001E024E433E043E064E0C6010E948F
:1039F000AC1CF601E58404E02CE433E045E064E02F
:103A0000C6010E94AC1CE12C0BE021E833E040E051
:103A100060E0C6010E94AC1C0CE025E833E040E009
:103A200062E0C6010E94AC1CD6011296ED91FC9199
:103A30001397108A1E968D919C9101969F938F9358
:103A400089E893E09F938F938E010F5F1F4F1F9321
:103A50000F930E94AB3140E062E3F60182819381D3
:103A60000E945007B801D60112968D919C910E9438
:103A7000AA1C0F900F900F900F900F900F90299607
:103A80000FB6F894DEBF0FBECDBFDF91CF911F916F
:103A90000F91EF90DF90CF9008950197029708F073
:103AA000B2CFE12C01E023E533E043E062E0C60160
:103AB0000E94AC1C04E022E633E045E064E0C6016D
:103AC0000E94AC1C07E029E633E047E064E0C60151
:103AD0000E94AC1CD6011E968D919C91019781F499
:103AE00005E02FE633E045E068E0C6010E94AC1C2B
:103AF00006E025E733E047E061E0C6010E94AC1C28
:103B0000F60182819381DC0150961C9240E069E6C7
:103B10000E945007F601268537858281938169E7E7
:103B200073E02130310511F06DE773E00E94AA1CAB
:103B30006ACFEF92FF920F931F93CF93DF93EC0125
:103B4000F62E172F042FE22E88858A30F8F449309C
:103B5000B0F4842F63E00E940230692F660F660F75
:103B60006D5F4BEA049F412D1124842F86954E7F73
:103B7000480F4F5F2F2D312FCE010E94AC1CDF91DB
:103B8000CF911F910F91FF90EF9008954930C0F4AD
:103B90008BEA489F812D1124982F96958E7F890F4F
:103BA000642F681B6F5F660F660F8985883008F485
:103BB0006E5F4BEA049F412D11244E7F4D5FDACF9B
:103BC00047EF400F242F217040FD23E046958A8166
:103BD0009B81FC01108AE11008C06C817D81600F1F
:103BE000711DFB01328D332319F03FEFFC01308B47
:103BF000622F660F620F660F0E9450076F2D712FA4
:103C00008A819B81DF91CF911F910F91FF90EF905F
:103C10000C94AA1C1F93CF93DF93EC018B85882310
:103C2000A9F010E08885181788F4812F90E0880F9C
:103C3000991FEE81FF81E80FF91F6081718120E0FB
:103C4000412FCE010E94991D1F5FECCFDF91CF91D4
:103C50001F9108951F93CF93DF93EC0110E08885A7
:103C6000181718F5812F90E09C01220F331FEE8169
:103C7000FF81E20FF31F60817181EE85FF85248152
:103C8000222389F0EC85FD85E80FF91F2081233080
:103C900051F0855C984FFC012081412FCE010E949C
:103CA000991D1F5FDCCF20E0F8CFDF91CF911F91EE
:103CB00008951F93CF93DF93EC0110E088851817C8
:103CC000E0F4812F90E09C01220F331FEE81FF81F1
:103CD000E20FF31F60817181EE85FF85248122232D
:103CE00051F0855C984FFC012081412FCE010E944C
:103CF000991D1F5FE3CF20E0F8CFDF91CF911F9197
:103D00000895CF92DF92EF92FF920F931F93CF937C
:103D1000DF93CDB7DEB72C970FB6F894DEBF0FBE9A
:103D2000CDBF7C0110E0F70120898085181730F5A0
:103D3000C12ED12CCC0CDD1C01E0211113C021E0DF
:103D4000412F63E273E0C7010E949816282FF60105
:103D5000E450FD4F60817181412FC7010E94991D80
:103D60001F5FE1CF21E0412F66E173E0C7010E94B0
:103D70009816282FF601EE51FD4FECCF82819381EA
:103D8000FC01108A222301F141E06DE20E945007FC
:103D9000F70182898F9381898F9382E993E09F93C2
:103DA0008F938E010F5F1F4F1F930F930E94AB31B4
:103DB000B801F701828193810E94AA1C0F900F9095
:103DC0000F900F900F900F902C960FB6F894DEBFC7
:103DD0000FBECDBFDF91CF911F910F91FF90EF905C
:103DE000DF90CF900895CF92DF92EF92FF920F93E2
:103DF0001F93CF93DF93CDB7DEB72C970FB6F89410
:103E0000DEBF0FBECDBF7C01DC011296ED91FC91AF
:103E10001397108A1F968C911F978F931E968C91E3
:103E20008F9382E993E09F938F938E010F5F1F4FD3
:103E30001F930F930E94AB3141E06DE2F701828145
:103E400093810E945007B801D70112968D919C91E1
:103E50000E94AA1C0F900F900F900F900F900F9040
:103E600010E0F7018085181708F043C0812F90E01B
:103E70000484F585E02D2781880F991F21111FC02B
:103E800088539D4FDC01CD90DC901B3080F521E004
:103E900040E0612FC7010E949113282F811108C0B3
:103EA00000E021E040E0612FC7010E94F613282FB7
:103EB000412FB601C7010E94991D1F5FD2CF8255C5
:103EC0009D4FFC01C080D1801B3088F421E040E090
:103ED000612FC7010E949113282F8111E9CF00E0C3
:103EE00021E040E0612FC7010E947605E0CF20E08D
:103EF000DFCF2C960FB6F894DEBF0FBECDBFDF919B
:103F0000CF911F910F91FF90EF90DF90CF90089588
:103F10003F924F925F926F927F928F929F92AF9259
:103F2000BF92CF92DF92EF92FF920F931F93CF93A6
:103F3000DF93CDB7DEB72F970FB6F894DEBF0FBE75
:103F4000CDBF7C01DC0113962D913C911497119605
:103F50008D919C912817390719F4662309F46EC0D6
:103F600006E021E048E765E0F701858196810E943F
:103F70007D07D70115968D919C91FC01118640E03B
:103F800060E00E94500768E8D70115968D919C91DA
:103F90000E94E91717E169E8F701858196810E947F
:103FA000E9171150C1F765E8D70115968D919C91DD
:103FB0000E94E91747E060E0F701858196810E9441
:103FC000500767E8D70115968D919C910E94E917DB
:103FD00017E169E8F701858196810E94E917115080
:103FE000C1F766E8D70115968D919C910E94E9175B
:103FF00011E0412F60E0F701858196810E94500712
:1040000064E8D70115968D919C910E94E917412F84
:1040100068E7F701858196810E94500764E8D7011F
:1040200015968D919C910E94E9171F5F173009F733
:10403000D7011596ED91FC9181E08187F701C18050
:10404000D280C6010D2C000CAA0BBB0B8887998768
:10405000AA87BB8733243A94D70111968D909C9000
:104060001297AC90B12CC40105968C159D050CF4EB
:104070008FC01F968C910C2D8823F9F02501B1E09B
:104080004B1A5108052C000C6608770822273327A5
:10409000A9012419350946095709688579858A8552
:1040A0009B850E94F22F6C877D878E879F87A30157
:1040B00092010E945B34022F040DCA14DB04CCF57C
:1040C000F701858196815601A818B908FFEFAF1A4C
:1040D000BF0A10E0000F111FD70119962D913C91D6
:1040E0004A2D68E0C216D30699F50E9450076AE887
:1040F000F701858196810E94E9174A2D69E0D70171
:1041000015968D919C910E945007F70185819681AB
:10411000DC0150963C920780F085E02DE00FF11F06
:10412000608171810E94AA1CD7011596ED91FC91C6
:10413000108ABFEFCB1ADB0A88859985AA85BB85D3
:104140000196A11DB11D88879987AA87BB8784CF57
:104150000E94500769EA75E0F701858196810E9407
:10416000AA1C4A2D69E0D70115968D919C910E9459
:104170005007D7011796ED91FC911897E00FF11FAA
:104180006081718115968D919C910E94AA1CD1CF5E
:10419000BF92AF9219968D919C9101969F938F93A8
:1041A0008EE993E09F938F938E010F5F1F4F1F93B4
:1041B0000F930E94AB31F80101900020E9F731978D
:1041C000E01BF10B8E2F880F880FE80F65E76E1B41
:1041D00041E0F701858196810E945007B801D7011F
:1041E00015968D919C910E94AA1C0FB6F894DEBF83
:1041F0000FBECDBF2F960FB6F894DEBF0FBECDBF5A
:10420000DF91CF911F910F91FF90EF90DF90CF90B2
:10421000BF90AF909F908F907F906F905F904F90E6
:104220003F900895CF93DF93EC0189859A85209183
:1042300004062617E9F060930406633061F16530E7
:1042400071F16230A9F429813A813C832B831816DD
:1042500019068CF401979A8789878217930724F4AB
:10426000215031093A83298360E0CE010E94881FE2
:104270008FEF9FEF15C02881822F90E0273038F014
:104280001C821B829C01265031093A8329830197A5
:104290009A878987E9CFCE010E94F505E5CF992756
:1042A000DF91CF910895EF92FF920F931F93CF93D9
:1042B000DF93EC01122F488378876F831A86198663
:1042C0001C861B861E861D861A82198281E090E05C
:1042D0009C838B83EF86F12CF01629F0CE010E948F
:1042E000F505F394F9CF61E0CE010E94881F109389
:1042F0000406DF91CF911F910F91FF90EF900895E9
:10430000EF920F93CF93DF93EC018A819B810E9400
:10431000B20781E090E0998B888B8C819D810E940F
:10432000FF03282FBE016E5E7F4FE12C00E044E0CA
:104330008E859F850E945321DF91CF910F91EF9041
:104340000895EF920F93CF93DF93EC018A819B81C5
:10435000FC01108A0E94B2078FEF9FEF9F878E8724
:104360008C819D810E94FF03282FBE01605F7F4FDB
:10437000E12C0AA145E08C859D850E945321DF91A7
:10438000CF910F91EF900895EF920F93CF93DF931A
:10439000EC018A819B81FC01108A0E94B2078FEF99
:1043A0009FEF9F878E878C819D810E94FF03282F1E
:1043B000BE01605F7F4FE12C08A144E08C859D85A4
:1043C0000E945321DF91CF910F91EF900895EF92CA
:1043D0000F93CF93DF93EC018A819B810E94B207F8
:1043E0008FEF9FEF998B888B8C819D810E94FF03BB
:1043F000282FFE01EA5AFF4FBE016E5E7F4FE12C6F
:10440000008146E08E859F850E945321DF91CF91E8
:104410000F91EF900895CF93DF93EC0188899989EC
:10442000019751F48C819D810E94FF03682F8E8536
:104430009F850E9412219C0188899989813091056C
:1044400009F01CC12F3F320709F456C1211531056F
:1044500059F488E198E00FB6F894A895809360002D
:104460000FBE90936000FFCF2130310509F04DC0A1
:1044700084E090E0998B888B81E290E00E947A3012
:104480002C813D814E855F856A817B81DC0113969D
:104490007C936E93129715963C932E9314971796D0
:1044A0001C921E92169729E018962C93189728E0D4
:1044B00019962C9319971A962C931A9731E01B96FC
:1044C0003C931B976EE872E011967C936E931D9659
:1044D0005C934E931C97EBE4F1E0509601900D92A3
:1044E0002A95E1F740915301509154016091550193
:1044F00070915601FC01408F518F628F738F9F8F97
:104500008E8FDF91CF910C94741A2230310509F00F
:104510004EC083E090E0998B888B83E290E00E940C
:104520007A302C813D814E855F856A817B81DC01FB
:1045300013967C936E93129715963C932E93149733
:1045400017961C921E92169729E018962C9318978E
:1045500028E019962C9319971A962C931A9721E014
:104560001B962C931B972AE932E011963C932E93CD
:104570001D965C934E931C972AE0E7E5F1E0509678
:1045800001900D922A95E1F7409153015091540109
:104590006091550170915601FC01428F538F648FD9
:1045A000758F9B8F8A8FDF91CF910C94981B23304E
:1045B000310509F0A1C082E090E0998B888B87E5F6
:1045C00090E00E947A302C813D814E855F856C851C
:1045D0007D85EA81FB81DC011396FC93EE931297B3
:1045E00015963C932E93149717961C921E9216972D
:1045F00029E018962C93189728E019962C93199770
:104600001A962C931A9721E01B962C931B9726EA57
:1046100032E011963C932E931D967C936E931C97DB
:104620001F965C934E931E972CE0E1E6F1E05296C4
:1046300001900D922A95E1F726E1EDE6F1E0DC012B
:104640005E9601900D922A95E1F726E1E3E8F1E00C
:10465000DC01D49601900D922A95E1F7DC01A65B6E
:10466000BF4F2AE0E9E9F1E001900D922A95E1F7C8
:104670009D8F8C8FDF91CF910C940C078330910527
:10468000D1F48A8D9B8DDC01ED91FC910680F78140
:10469000E02D0995882381F18A8D9B8D009711F07B
:1046A0000E941031E881F9810280F381E02DCE0172
:1046B000DF91CF9109948230910571F48C8D9D8D9D
:1046C000DC01ED91FC910680F781E02D09958823AE
:1046D00099F08C8D9D8DE2CF049771F48E8D9F8D16
:1046E000DC01ED91FC910680F781E02D099588238E
:1046F00019F08E8D9F8DD2CFDF91CF910895CF92FB
:10470000DF92EF92FF920F931F93CF93DF93EC0111
:104710008B01CB010E94A2317C01C12CD12CEC2D4C
:10472000F0E0EE15FF05B0F4E00FF11F64916A3080
:1047300041F44D814F5F60E0CE010E945007D12CC3
:1047400007C0CE010E94E917D39484E18D1588F348
:10475000C394E5CFDF91CF911F910F91FF90EF9020
:10476000DF90CF900895EF92FF920F931F93CF9316
:10477000DF93EC018E859F85019651F48C819D819C
:104780000E94FF03682F8C859D850E9412219C0149
:104790000E851F850F3F100709F045C02F3F3207D8
:1047A000B9F181E021153105A1F1215031093F878F
:1047B0002E87122F2F5F2AA38A819B810E94B20726
:1047C00040E060E08A819B810E9450078A819B8142
:1047D000123031F148F465E276E0111102C068E56B
:1047E00076E00E947F2304C065E875E01330C9F3CA
:1047F0000A811B8146E060E0C8010E9450076DE518
:1048000075E0C8010E947F23EA81FB818FEF808BD6
:1048100080E0DF91CF911F910F91FF90EF9008956D
:1048200069ED75E0DECFE8A0F9A00230F9F0A8F458
:10483000011119C0F70114818C819D810E941D0412
:104840008330B9F4C7010E94AE1AE881F98104806F
:10485000F581E02DCE010995DBCF10E0033061F743
:10486000F7011781E9CFF7011581E6CFF70116812E
:10487000E3CF853061F481E01827023031F128F46C
:10488000011120C0F701148302C0033009F144E094
:104890006EE28A819B810E9450078A819B8122E07F
:1048A000FC01218BE12FF0E03D96EE0FFF1FEC0F96
:1048B000FD1F608171810E94AA1CEA81FB8181E059
:1048C000818BA6CFF7011583E2CFF7011683DFCFE7
:1048D000F7011783DCCFEF92FF920F931F93CF93D3
:1048E000DF93EC018E859F85019651F48C819D812B
:1048F0000E94FF03682F8C859D850E9412219C01D8
:104900000E851F850F3F100709F042C02F3F320769
:1049100079F181E02115310561F1215031093F879D
:104920002E87122F2F5F28A38A819B810E94B207B6
:1049300040E060E08A819B810E9450078A819B81D0
:104940001130F1F0123009F168E075E01123D1F077
:104950000A811B8146E060E0C8010E9450076DE5B6
:1049600075E0C8010E947F23EA81FB818FEF808B75
:1049700080E0DF91CF911F910F91FF90EF9008950C
:104980006BEB74E00E947F23E3CF63E974E0FACF1E
:10499000EE8CFF8C0130C1F00230C9F010E0011143
:1049A00002C0F70114818C819D810E941D04833017
:1049B00089F4C7010E94B419E881F9810480F58166
:1049C000E02DCE010995D4CFF7011581ECCFF70189
:1049D0001681E9CF853051F481E01827013009F1C3
:1049E000023011F1011102C0F701148344E06EE2BC
:1049F0008A819B810E9450078A819B8122E0FC0171
:104A0000218BE12FF0E03C96EE0FFF1FEC0FFD1F16
:104A1000608171810E94AA1CEA81FB8181E0818B07
:104A2000A7CFF7011583E2CFF7011683DFCF8F926F
:104A30009F92AF92BF92CF92DF92EF92FF920F932D
:104A40001F93CF93DF93CDB7DEB72C970FB6F894B3
:104A5000DEBF0FBECDBF6C01DC0150968D919C91E5
:104A60005197049769F014968D919C910E94FF03D1
:104A7000182F682FF601868597850E941221AC01B8
:104A8000D60150968D919C918F3F980709F007C1F0
:104A90004F3F5407A1F480E02C960FB6F894DEBF88
:104AA0000FBECDBFDF91CF911F910F91FF90EF907F
:104AB000DF90CF90BF90AF909F908F900895411559
:104AC000510509F47CC141505109D60151965C93BE
:104AD0004E935097F601EA5AFF4F21E0240F2083AE
:104AE0003297918380834115510569F4B601625E66
:104AF0007F4FE12C00E0212F4BE0F6018685978562
:104B00000E945321C8CFB6016C5C7F4FE12C41302D
:104B1000510599F04230510541F4B601665B7F4F73
:104B2000E12C00E0212F45E0E8CF4330510569F446
:104B3000B601625E7F4FEE24E39400E0212F4BE04C
:104B4000D6011E968D919C91DBCF4430510509F022
:104B5000A2CFF601828193810E94B207D6011C96F2
:104B6000ED91FC9180811F928F930FE813E01F93CA
:104B70000F934E01B5E08B0E911C9F928F920E9475
:104B8000AB31D6011C96ED91FC9181811F928F93E0
:104B90001F930F935E01BBE0AB0EB11CBF92AF92AF
:104BA0000E94AB31D6011C96ED91FC9182811F923F
:104BB0008F931F930F937E01B9E0EB0EF11CFF92D0
:104BC000EF920E94AB31D6011C96ED91FC9183814E
:104BD0001F928F931F930F938E010F5F1F4F1F9391
:104BE0000F930E94AB3140E060E0F6018281938137
:104BF0000E94500760E674E0D60112968D919C9158
:104C00000E947F2345E060E0F601828193810E944B
:104C100050076BE274E0D60112968D919C910E9430
:104C20007F2340E060E5F601828193810E94500776
:104C3000B401D60112968D919C910E94AA1C41E06C
:104C400060E5F601828193810E945007B501D6018B
:104C500012968D919C910E94AA1C42E060E5F6019B
:104C6000828193810E945007B701D60112968D91DF
:104C70009C910E94AA1C43E060E5F6018281938129
:104C80000E945007B801D60112968D919C910E9406
:104C9000AA1C0FB6F894DEBF0FBECDBFFCCE0097A6
:104CA00029F5D6011E96ED91FC911F97818592857D
:104CB0009C013327F601EC5AFF4F60817181621726
:104CC000730789F01C966D917C919AE0899F802DE5
:104CD0001124DB018C93D6011C968D919C91DC01F3
:104CE0008C9180931107318320831CC08130910502
:104CF00059F5D6011E96ED91FC911F9721853285BD
:104D0000C9019927F601EC5AFF4F6081718168173C
:104D1000790731F01C966D917C91DB0111962C93F3
:104D2000918380834F3F5F4F09F4B5CEF6018485B0
:104D300095850E94911AD601ED91FC910480F58130
:104D4000E02DC6010995A7CE82309105C1F4D601A8
:104D50001E96ED91FC911F9721853285C9019927F7
:104D6000F601EC5AFF4F6081718168177907C1F233
:104D70001C966D917C91DB0112962C93D1CF0397F9
:104D800009F089CED6011E96ED91FC911F976185A1
:104D900072859B013327F601EC5AFF4F8081918188
:104DA0008217930709F49FCF1C960D911C918AE0FE
:104DB000869F800D1124D80113968C9394CF81E0A7
:104DC0006BCE1F921FB61F9211242F933F938F9388
:104DD0009F93AF93BF9380911F0790912007A0915D
:104DE0002107B09122073091F70623E0230F2D37DA
:104DF00050F50196A11DB11D2093F70680931F0762
:104E000090932007A0932107B09322078091F30687
:104E10009091F406A091F506B091F6060196A11DB9
:104E2000B11D8093F3069093F406A093F506B0931A
:104E3000F606BF91AF919F918F913F912F911F9057
:104E40001FBE1F90189526E8230F0296A11DB11DC5
:104E5000D3CF1F920F920FB60F921124CF92DF92F1
:104E6000EF92FF920F931F932F933F934F935F9374
:104E70006F937F938F939F93AF93BF93EF93FF9322
:104E8000CF93DF93CDB7DEB76C97DEBFCDBF109267
:104E9000E9008091E80083FF2FC0CE014596E82EFF
:104EA000D92E9E01235E3F4FFC0101964091F100F7
:104EB000408382179307C1F7289A84E68093DE0621
:104EC00082EF8093E8008D8987FF35C09091E800DC
:104ED00090FFFCCF982F907609F034C19E899111F4
:104EE00031C0803861F58091DF068093F100109227
:104EF000F1008EEF8093E8006C960FB6F894DEBF59
:104F00000FBECDBFDF91CF91FF91EF91BF91AF91D8
:104F10009F918F917F916F915F914F913F912F91D1
:104F20001F910F91FF90EF90DF90CF900F900FBEE9
:104F30000F901F9018959EEF9093E800CBCF1092A2
:104F4000F100D5CF2F89388D913059F48111D1CF0F
:104F50002130310571F68091DF068D7F8093DF0669
:104F6000C8CF933049F48111C4CF2130310509F6FF
:104F70008091DF068260F2CF953049F48091E8009D
:104F800080FFFCCF8F8980688093E300B2CF96309A
:104F900009F0A9C0F88C0B8D1C8D82E01092E900FD
:104FA0001092E3061092E206F8122EC01092E1066B
:104FB0001092E0060E94FD101F8299E09983FA8208
:104FC00091E09E8390EA98879AEF99872091E20674
:104FD0003091E306275F3F4F3C832B838D831092F4
:104FE000E9001092E3061092E2061093E1060093A6
:104FF000E00649E050E0BE016F5F7F4F80E00E9415
:1050000023100E94FD1075CF1093E1060093E00677
:105010000E94290EDC0112960D911C9101151105BB
:1050200009F4BBC0D801ED91FC910480F581E02D1D
:105030006E2D7D2DC8010995009709F0A9C0F801D2
:1050400000851185EBCFF3E0FF120EC08F89882316
:1050500009F440C0823061F440E865E08EE893E0F6
:105060000E94CD10811145CF81E28093EB0044CFA7
:10507000813029F440E86BE082E893E0F1CF83309F
:1050800099F70E94290EDC011296ED90FC908E019A
:105090000F5F1F4F6801E114F10479F0D701ED9122
:1050A000FC910680F781E02DB801C7010995080F32
:1050B000111DF701E084F184EECFD8011C92F601B6
:1050C00001900020E9F73197BF016C197D0940E09C
:1050D000C601C6CF6CE673E0FB01449150E080E866
:1050E0000E94231006CF973009F4BECF983021F4E8
:1050F00081E08093F100FDCE993009F0FACE837003
:1051000009F0B2CFEFE3F1E081E031E096E32191E5
:10511000211109C08EE78093EA001092EA008F897E
:105120008093E606E6CE8093E9003093EB00DF0142
:1051300011972C912093EC009093ED008F5F8730B6
:1051400031F7E8CF8B8D9C8D1092E9001092E30629
:105150001092E2069093E1068093E0060E94290EE9
:10516000DC0112960D911C910115110509F47CCFFB
:10517000D801ED91FC910190F081E02D6E2D7D2DF7
:10518000C80109958111B5CEF80100851185ECCFD4
:10519000181619060CF4ADCE67CFF1E0FF1253CF0D
:1051A00060E773E099CF1F921FB61F9211248F936F
:1051B0009F938091E1009091E100937F9093E100B3
:1051C00083FF0FC01092E90091E09093EB001092E2
:1051D000EC0092E39093ED001092E60698E0909335
:1051E000F00082FF22C093E09093E9009091F200DA
:1051F000992319F09AE39093E8009091E40699239B
:1052000041F09091E40691509093E406911101C011
:105210005D989091DE06992341F09091DE069150C1
:105220009093DE06911101C0289884FF17C08091E9
:10523000E2008E7E81608093E2008091E1008F7EAB
:105240008093E1008091E5068E7E80618093E50683
:105250009F918F911F901FBE1F90189580FFF8CFD0
:105260008091E2008E7E80618093E2008091E10077
:105270008E7E8093E1008091E5068E7E8160E6CF90
:10528000CF93DF93FC01DB01C385D485209771F4B4
:10529000748763878585968514962D913C91820F3E
:1052A000931F96878587DF91CF910895CE0109904E
:1052B000D881C02D2097D1F7EC01B983A883EACF1C
:1052C000CDB7DEB7AC970FB6F894DEBF0FBECDBF3B
:1052D0000E943B0D1092E6061092DF061092E50642
:1052E0008091D70081608093D70080EA8093D800B6
:1052F00089B5806189BD89B5826089BD09B400FE28
:10530000FDCF61E070E080E090E00E94F50C8091BC
:10531000D8008F7C80618093D8008091E000807FEE
:105320008093E0008091E1008E7E8093E1008DE02B
:105330008093E200559A209A5D98289810926C0606
:105340008CE380936B061092B9008CE08093B800D8
:1053500010925C0610925D06E6E6F3E0859194916A
:10536000E82EE8E6F3E0F490E9E6F3E0E491E09378
:105370005E06EAE6F3E0E491E0935F06EBE6F3E035
:10538000E491E09360068C01802F8E198F1548F40C
:10539000F801649188E596E00E941A070F5F1F4F9D
:1053A000F3CF88E596E00E94B207E4E4F1E0F093E1
:1053B0006706E09366068491E5E4F1E0E491F82F56
:1053C000319709F0A5C11092610688E596E00E9428
:1053D000B20780911806811145C010920A061092FA
:1053E00009068FEF80930D0680930E0680930F06BB
:1053F00080931006809311068093120681E08093BB
:105400001306109215061092140610920C061092B4
:105410000B068091260690912706892B31F487E0B0
:1054200096E09093270680932606E0910506F0917A
:105430000606309721F087E096E09583848387E025
:1054400096E0909306068093050610921706109238
:10545000160687EF91E0909308068093070681E097
:1054600080931806E0910706F09108060480F58104
:10547000E02D87E096E0099582E896E090930A0691
:105480008093090689E090E09093150680931406B6
:10549000E0910706F09108060284F385E02D87E08D
:1054A00096E009959C01892BF9F050E040E060E41A
:1054B00072E48FE090E00E945B3480911407909139
:1054C0001507A0911607B091170782179307A40735
:1054D000B50710F4DA01C9018093140790931507FA
:1054E000A0931607B0931707109281069E012F5FB5
:1054F0003F4F690101E010E0322EFD2CC8010E94EF
:105500004534D6018D936D010F5F1F4F0530110596
:10551000A9F7398130937D062A8120937E069B81ED
:1055200090937F068C81809380063F3F31F02F3F20
:1055300021F09F3F11F08F3F49F410927D061092A9
:105540007E0610927F0684E18093800680917D061E
:1055500080931107E7EBF6E087E2DF011D928A9561
:10556000E9F78DE0EDE3F5E0A32DBF2D01900D925D
:105570008A95E1F7C32CDF2CEDE9F6E0F88FEF8B8D
:105580005E01FEE0AF0EB11C4A2C2B2C73E2672E9D
:10559000712C812C912CEE24E39482E190E00E9406
:1055A0007A308C01D6018D916D01F8018083618282
:1055B000728283829482E582E682EF89F88D01937C
:1055C0001193F88FEF8B62E00E94910DD8018C91BE
:1055D0000E94CD0D9C0181E02115310509F480E088
:1055E000F80187838681882339F081E0232B09F035
:1055F00080E0D80117968C930E941A0AF8016287FE
:1056000073878487958727812087118666877787A8
:10561000808B918BCA14DB0409F0BFCF0E94041663
:105620008DE996E00E94FF03282FE12C00E047E07F
:105630006AE476E08DE696E00E9453219E012C5E9E
:105640003F4FCE01419668E5662E66E0762ED22E5B
:10565000C32EE82E592E0E94041680913406811123
:105660001AC080908006912CB12CA12C0E941A0A9D
:1056700060932C0670932D0680932E0690932F0630
:105680008092300690923106A0923206B092330694
:1056900081E0809334060E941A0A6F8B788F898F7D
:1056A0009A8F80912C0690912D06A0912E06B09194
:1056B0002F068F88988CA98CBA8C881A990AAA0A06
:1056C000BB0AD501C401409130065091310660916A
:1056D00032067091330684179507A607B70778F04E
:1056E0000E941A0A60932C0670932D0680932E0652
:1056F00090932F06809181068F5F80938106E091C1
:105700007E06EB30B8F4F0E0E953FB4C0C94223009
:1057100081E08093610659CE19821A821B8204C0EF
:105720008FEF89838A838B83632D7F2D82E896E0B8
:105730000E94A31190917F069111AFC09090110724
:105740008091140790911507A0911607B091170743
:10575000892B8A2B8B2B09F0C3C00E943A0A6093D5
:1057600028067093290680932A0690932B06E091D1
:105770001C07F0911D07309709F0D9C0A0902606AC
:10578000B0902706492D50E070E060E049A75AA785
:105790006BA77CA7A114B10409F419C1D5011C960B
:1057A000BC91BF8B809112079091130784369105AD
:1057B00010F4F5011486D501ED91FC91228133811D
:1057C0003C8F2B8F19821A821B829110BCC00981D9
:1057D0001A812B81D5011D964D915C911E971296D1
:1057E0006D917C91C501EB8DFC8D09958F88D5015C
:1057F0001C968C921C971496AD90BC90CBCF8FEFDB
:1058000089838BCF198280E88A8388CF19821A8294
:105810008FEF89CF80918106865F898B1FEF1A8B6E
:105820001B8B6D2D7C2D8E2D952D0E94B11180919D
:10583000810689831A831B83642D722D832D9F2DEE
:105840000E94B1114D2D5C2D642D722D82E896E0E1
:105850000E940E126FCF809181068A5BDECF80910D
:1058600081068858DACF909181068AE0891B898B5E
:105870001FEF1A8B1B8B6D2D7C2D8E2D952D0E946D
:10588000B111809181068195D4CF9091810686E4F3
:10589000EDCF9091810688E7E9CFA7EBB6E0EDE781
:1058A000F6E08FEF2D91933040F4222351F09130A8
:1058B00099F485838683878304C0933059F4222327
:1058C000C1F3339658E9A52E56E0B52EAE16BF06A5
:1058D00049F734CF2111F5CF158216821782F1CF07
:1058E0000E943A0A6F8B788F898F9A8F8091280651
:1058F00090912906A0912A06B0912B062F89388D08
:10590000498D5A8D281B390B4A0B5B0BDA01C901F3
:105910004091140750911507609116077091170771
:1059200084179507A607B70708F40ACF16CF40914A
:1059300018075091190760911A0770911B07892D5C
:105940000995982E1BCF85010A5F1F4FE32DFF2D70
:105950009501275F3F4F38A32F8FD8012D918D01DF
:10596000222371F112968C90882051F130E050E0A2
:1059700040E02F5F3F4F4F4F5F4F69A57AA58BA542
:105980009CA50E94F22F69A37AA38BA39CA3882DC8
:1059900090E0B0E0A0E09C01AD012F5F3F4F4F4F82
:1059A0005F4F2DA33EA34FA358A729A13AA14BA116
:1059B0005CA16DA17EA18FA198A50E94F22F80838A
:1059C00031964F8D58A14017510739F600CF80917D
:1059D0002406909125068C010F5F1F4F109325061A
:1059E0000093240649970CF44CC00E941A0A6F8B4E
:1059F000788F898F9A8F8091200690912106A091AF
:105A00002206B091230668EE73E0069F9001079F7F
:105A1000300D169F300D11244901330FAA08BB0821
:105A20008B8E9C8EAD8EBE8E2F89388D498D5A8D72
:105A3000281B390B4A0B5B0B8F88988CA98CBA8C6E
:105A400088169906AA06BB0621F421E030E040E062
:105A500050E06B8D7C8D8D8D9E8D0E9485343093B2
:105A600013072093120710922506109224060E9415
:105A70001A0A609320067093210680932206909361
:105A8000230680913C0190913D018F3F980709F0DA
:105A90009EC18DE996E00E94FF03682F8DE696E097
:105AA0000E9412219C01019609F452C0220F331F5B
:105AB000F901E65BF94F8081918154E0833F9507BE
:105AC00009F04EC081E090E090933D0180933C014D
:105AD00080E290E00E947A30DC0113967C926E9214
