:100000000C9459040C9481040C9481040C94810484
:100010000C9481040C9481040C9481040C9481044C
:100020000C9481040C9481040C94C3260C94322704
:100030000C9481040C9481040C9481040C9481042C
:100040000C9481040C9481040C9481040C9481041C
:100050000C9481040C9481040C9481040C94D82891
:100060000C9481040C9481040C9481040C948104FC
:100070000C9481040C9481040C9481040C948104EC
:100080000C9481040C9481040C9481040C948104DC
:100090000C9481040C9481040C9481040C948104CC
:1000A0000C9481040C9481040C948104AED580A836
:1000B0003FD300408D142002A1C8DA12817FD9F10C
:1000C000DB40A4A6AF00000000000000000000001C
:1000D00000000000002A002B0028000000000000A3
:1000E0000000000000000000000000000000000010
:1000F0000000000000000000000000000000000000
:1001000000000000002C001E023402200221022206
:1001100002240234002602270225022E0236002D78
:10012000003700380027001E001F00200021002299
:100130000023002400250026003302330036022E5F
:1001400000370238021F02040205020602070208F5
:100150000209020A020B020C020D020E020F02102B
:1001600002110212021302140215021602170218DB
:100170000219021A021B021C021D022F003100305C
:100180000023022D023500040005000600070008C8
:100190000009000A000B000C000D000E000F0010FB
:1001A00000110012001300140015001600170018AB
:1001B0000019001A001B001C001D002F0231023024
:1001C00002350200000000000000000000000000F6
:1001D000000000000000000000000000000000001F
:1001E000000000000000000000000000000000000F
:1001F00000000000000000000000000000000000FF
:1002000000000000000000000000000000000000EE
:1002100000000000000000000000000000000000DE
:1002200000000000000000000000000000000000CE
:1002300000000000000000000000000000000000BE
:1002400000000000000000000000000000000000AE
:10025000000000000000000000000000000000009E
:10026000000000000000000000000000000000008E
:10027000000000000000000000000000000000007E
:10028000000000000000000000000000000000006E
:10029000000000000000000000000000000000005E
:1002A000000000000000000000000000000000004E
:1002B000000000000000000000000000000000003E
:1002C00000000000005265706C61636573206C6112
:1002D000796F757420776974682074686520736914
:1002E0006465732F636F726E657220627574746FCC
:1002F0006E73206265696E672064697265637469F4
:100300006F6E616C284C202B205220746F20717509
:1003100069636B7377617029005768656E20686F39
:100320006C64696E67204D332C2055702020616EFF
:100330006420446F776E2077696C6C206163742051
:100340006173207363726F6C6C20776865656C20D5
:10035000696E73746561642E28546F67676C65619C
:10036000626C6529004D6F7573652077696C6C2030
:1003700073746179206D6F76696E6720756E74692C
:100380006C20627574746F6E20707265737365642F
:1003900020616761696E2E005768656E20796F7500
:1003A000207072657373206120202020206D6F758E
:1003B00073652062746E2E2C2069742077696C6CD2
:1003C0002020737461792068656C6420756E74698F
:1003D0006C20796F752020707265737320697420AA
:1003E000616761696E2E00412F4D6964646C652000
:1003F000526F773A20546F67676C650A422F426FDD
:1004000074746F6D20526F773A204261636B0045C0
:100410006E61626C652065787472612046756E63EA
:1004200074696F6E206B65797320696E2046313375
:100430002B206D6F6465005768656E20696E2057CC
:10044000415344206D6F64652C207265706C61634C
:100450006573204120616E642044207769746820B0
:100460004D6F757365204D6F76656D656E7473287D
:100470004C202B205220746F20717569636B737749
:10048000617029005768656E20796F7520707265FC
:100490007373206120627574746F6E2C20697420F0
:1004A00077696C6C20737461792068656C64207561
:1004B0006E74696C2069742069732070726573733F
:1004C000656420616761696E2E2054727920422034
:1004D0002B203C206F72203E0041206869676865D0
:1004E00072202253706565642076616C75652220E8
:1004F0006D65616E73206120736C6F776572206D1E
:100500006F76696E67207261696E626F7700427202
:10051000696768746E6573733A0A4C6967687469D1
:100520006E67204D6F64653A0A50757368204163A9
:1005300074696F6E3A0A5247422053706565643A97
:100540000000030C0F30333C3FC0C3CCCFF0F3FCB2
:10055000FF000000002300260029002C002F0000CF
:1005600000000200090F0000030401000C0000005D
:100570000000000000000000000000000000040374
:1005800009041201000200000040412337800001ED
:100590000102030141726475696E6F204C4C430087
:1005A00041726475696E6F204D6963726F0000005F
:1005B0000000250028002B002E0031000000000064
:1005C000240027002A002D00300004040404040342
:1005D00004050202020204030202020206060606E3
:1005E000060604040202020404040802011040800A
:1005F000401020408040800802040180402010020A
:10060000011080102040402000000507206C0000F1
:1006100000000000005F00000007000700147F14C6
:100620007F14242A7F2A1223130864623649562035
:10063000500008070300001C2241000041221C005A
:100640002A1C7F1C2A08083E080800807030000819
:1006500008080808000060600020100804023E51ED
:1006600049453E00427F400072494949462141497F
:100670004D331814127F1027454545393C4A4949E6
:100680003141211109073649494936464949291E50
:10069000000014000000403400000008142241143F
:1006A00014141414004122140802015909063E4191
:1006B0005D594E7C1211127C7F494949363E4141B9
:1006C00041227F4141413E7F494949417F09090912
:1006D000013E414151737F0808087F00417F41007E
:1006E0002040413F017F081422417F404040407F2D
:1006F000021C027F7F0408107F3E4141413E7F097A
:100700000909063E4151215E7F09192946264949BA
:10071000493203017F01033F4040403F1F204020FA
:100720001F3F4038403F63140814630304780403F8
:100730006159494D43007F414141020408102000A6
:100740004141417F04020102044040404040000317
:1007500007080020545478407F28444438384444E3
:100760004428384444287F385454541800087E09DB
:100770000218A4A49C787F0804047800447D4000FB
:100780002040403D007F1028440000417F40007C15
:10079000047804787C080404783844444438FC180D
:1007A00024241818242418FC7C08040408485454F1
:1007B000542404043F44243C4040207C1C2040201E
:1007C0001C3C4030403C44281028444C9090907C85
:1007D0004464544C44000836410000007700000097
:1007E0004136080002010204023C2623263C08048C
:1007F0007E040810207E201008082A1C08081C2AE5
:1008000008080000FF00FF1414F404FC141417106F
:100810001F00001F10170000FC04F414141414141B
:10082000FFFFFFFFFF7F3E1C1C08AC00198040004B
:1008300005010902A1018501050919012908150011
:100840002501950875018102050109300931093832
:100850001581257F750895038106C005010906A14C
:10086000018502050719E029E715002501750195A5
:10087000088102050C95017508150026FF00190076
:1008800029FF8100050795067508150026E7001960
:100890000029E78100C0050C0901A10185041500AC
:1008A00026FF0319002AFF03950475108100C0007C
:1008B0003D2911241FBECFEFDAE0DEBFCDBF15E02A
:1008C000A0E0B1E0E8EFF9E602C005900D92AE3F7E
:1008D000B107D9F727E0AEEFB5E001C01D92AA3805
:1008E000B207E1F714E0C9E5D4E004C02197FE01A6
:1008F0000E94FC31C835D107C9F70E940A2A0C941E
:10090000FA340C940000EF92FF920F931F93CF9351
:10091000DF93EB01E881EE2EF12CA981B0E06A8132
:1009200070E0FA01208130E02E193F09E901D695E7
:10093000DC2FCC27D795C79530FD2796F3E0D595CA
:10094000C795FA95E1F7FA01018110E00A1B1B0B2C
:1009500098013695322F22273795279510FF02C030
:10096000295F3F4FF3E035952795FA95E1F7FA01B6
:10097000428150E0461B570B8A011695102F002725
:100980001795079550FF02C0095F1F4F43E015956B
:1009900007954A95E1F7CC0FDD1F220F331F000F9B
:1009A000111FFE2CEE24BA2FAA27762F6627FC01F2
:1009B0004B96F082B1837283EC0EFD1EA20FB31F23
:1009C000600F711F3396E817F90799F7DF91CF9100
:1009D0001F910F91FF90EF900895FB01DC015C9156
:1009E000952F990F990F990F35E5292F239F020E07
:1009F00020E0211D1124822F252F2074452F4072C5
:100A000057FD25C0211110C0411106C0982F9095A7
:100A1000382F892F90E004C035E5380F90E08BEA3D
:100A2000808331839283089541110BC0292F3AEAC4
:100A3000239F020E20E0211D11249BEA921B380FF8
:100A4000E8CF90E0382F3095982F80E0E9CF211142
:100A500012C041110CC0292F3AEA239F020E20E058
:100A6000211D11243BEA321B95E5920FEECF982F02
:100A7000909530E0D5CF411106C025E5280F9BEABF
:100A8000981B822FF6CF2AEA280F90E0932FF8CFF9
:100A9000CF92DF92EF929C01255E3F4FFB01C08019
:100AA000D180E280FC01C192D192E192CF01E217A4
:100AB000F307A1F7EF90DF90CF90089580E991E0E0
:100AC0000895409151065091520620914F06309161
:100AD000500642175307B4F49091E8009570E1F383
:100AE0009091E80092FD19C08093F1008091510629
:100AF0009091520601968F739927892B19F48EEFE6
:100B00008093E8008091510690915206019690934F
:100B100052068093510681E0089580E00895EF9297
:100B2000FF920F931F93CF93DF93F82E192FE62E8A
:100B3000042F81E0860F880F0E94610583E00E94E8
:100B40006105CF2DD12FEC0EFD2EF11CCE15DF054A
:100B5000B9F007FF13C0FE0184910E946105182FB0
:100B600080E00E946105812321968111EFCFDF9102
:100B7000CF911F910F91FF90EF9008958881EDCF55
:100B800081E0F5CFDF92EF92FF920F931F93CF9307
:100B9000DF93D82E8A01EB017B01E40EF51ECE1502
:100BA000DF0559F0D7FE12C0FE0184910E94610555
:100BB00021968111F4CF0FEF1FEFC801DF91CF9184
:100BC0001F910F91FF90EF90DF9008958881EECFF5
:100BD000DC01ED91FC910190F081E02D0994AF9240
:100BE000BF92CF92DF92EF92FF920F931F93CF931A
:100BF000DF936C017B018B01040F151FEB015E017C
:100C0000AE18BF08C017D10759F06991D601ED9110
:100C1000FC910190F081E02DC6010995892B79F7AF
:100C2000C501DF91CF911F910F91FF90EF90DF9061
:100C3000CF90BF90AF9008958091400681110BC076
:100C400010923C0681E080933D0610923F06109280
:100C50003E06809340068CE396E008950F931F9321
:100C6000CF93DF931F92CDB7DEB719820E941C0687
:100C7000DC0112960D911C910115110589F0D80126
:100C8000ED91FC910280F381E02DBE016F5F7F4FFB
:100C9000C801099597FD04C0F80100851185ECCFC6
:100CA00089810F90DF91CF911F910F910895282F87
:100CB00030E0F901E15AFA4F9491F901E751FA4F06
:100CC000849126533A4FF9012491222309F45BC001
:100CD0009923E9F091509F30D0F4E92FF0E0ED58DE
:100CE000F94F0C94FC319E06A206820696069A06DF
:100CF000870687068706A506AB06AF06B306B906C4
:100D00008706BD06909180009F7790938000E22F28
:100D1000F0E0EE0FFF1FEF5AFA4FA591B491EC915E
:100D2000E82381E090E089F580E0089590918000CB
:100D30009F7DEBCF90918000977FE7CF94B59F7711
:100D400094BDE5CF94B59F7DFBCF909190009F77A8
:100D500090939000DCCF909190009F7DF9CF90917F
:100D60009000977FF5CF9091C0009F779093C0003F
:100D7000CECF9091C0009F7DF9CF9091C200977F18
:100D80009093C200C4CF80E090E008953FB7F894FC
:100D90008091380690913906A0913A06B0913B06B1
:100DA00026B5A89B05C02F3F19F00196A11DB11DC6
:100DB0003FBFBA2FA92F982F8827BC01CD01620F02
:100DC000711D811D911D42E0660F771F881F991FBD
:100DD0004A95D1F708958F929F92AF92BF92CF928A
:100DE000DF92EF92FF926B017C010E94C6064B01DD
:100DF0005C01C114D104E104F104B9F00E94C606FB
:100E0000681979098A099B09683E73408105910533
:100E100080F321E0C21AD108E108F10888EE880EBB
:100E200083E0981EA11CB11CE4CFFF90EF90DF90EF
:100E3000CF90BF90AF909F908F9008956F927F92C8
:100E40008F929F92AF92BF92CF92DF92EF92FF92DA
:100E50000F931F93CF93DF93C82E8B017A0180915C
:100E60008E06811111C08FEF9FEFDF91CF911F91FF
:100E70000F91FF90EF90DF90CF90BF90AF909F9039
:100E80008F907F906F9008958091550680FF05C0E8
:100E90008091E00082608093E000CE2DDF2DD12C88
:100EA0008AEFB82E8C2D8770982E90E4892E8C2D89
:100EB0008072782E8C2D8074682E2AE3A22E2097C3
:100EC00019F4DD2009F45DC08FB7F8949092E90021
:100ED0009091E80095FD0BC08FBFBA94BB2019F22A
:100EE00061E070E080E090E00E94EB06E8CF909136
:100EF000F200282D291B8FBF222379F32C171D0602
:100F000011F00CF02C2F3FB7F8949092E9008091EB
:100F1000E80085FD02C03FBFD2CF822F90E0C81B02
:100F2000D90B772029F02150A0F01092F100FBCFCF
:100F3000F801C7FC0AC0215050F041914093F100E4
:100F4000FACF44914093F10031962150D0F7080F29
:100F5000191FDD2021F0A092E800D12CDCCF809178
:100F6000E80085FD07C0A092E800DD24D394209717
:100F700091F2F3CF209779F6662069F2A092E8000B
:100F8000CACF5D9A84E680935406C7016ECF2FB70F
:100F9000F8946091340670913506809136069091F0
:100FA00037062FBF08954F925F926F927F928F9274
:100FB0009F92AF92BF92EF92FF920F931F93CF93A6
:100FC000DF9301EC16E08BEDE82E86E0F82ED801D9
:100FD000CD91DD918D010E94C7074B015C01888195
:100FE0000E9457069C018E8191E0811104C0232B41
:100FF00021F490E002C0232BE1F74E855F856889DC
:10100000798924013501441A550A660A770A49810B
:101010005A816B817C81441655066606770668F511
:1010200019868A869B86AC86BD86F8013297019028
:10103000F081E02D8781D7018D937D0190E08111B2
:101040009185D7011C969C93811124C08185F7015D
:10105000818FF6E00B3D1F0709F0B9CFDF91CF91EB
:101060001F910F91FF90EF90BF90AF909F908F9046
:101070007F906F905F904F9008958F8188879F83B6
:10108000282F29272987891761F28E869F86A88AAB
:10109000B98AC7CF80E0DBCFDC01FB0112962C912F
:1010A0001297848195812817190641F491818081D6
:1010B000813A31F49D7F81E0913009F080E008951C
:1010C0008132E1F79B3029F482811F968C9381E075
:1010D00008959A3099F7828150968C93F8CFAF9209
:1010E000BF92CF92DF92EF92FF920F931F93CF9315
:1010F000DF931F92CDB7DEB77C0169836A01590186
:1011000041E050E0BE016F5F7F4FFC0183810E9490
:101110001E078C0197FD0BC0F7018381A501B60165
:1011200080640E941E07080F191F97FD8C01C801DB
:101130000F90DF91CF911F910F91FF90EF90DF9073
:10114000CF90BF90AF900895DC01FB0188E48083CD
:1011500089E4818384E482831D969C911D979F700E
:101160009F5B93831D968D919C9124E09695879526
:101170002A95E1F78F708F5B848385E00895EF9265
:10118000FF920F931F93CF93DF93FB0120812138B0
:1011900071F52381223259F5DC0112964C9124819C
:1011A00035814217130619F5EC010B851C85F12CCE
:1011B000E12C0115110589F0F80144815581628106
:1011C000738180E80E94C2058F3F980749F0E80EBE
:1011D000F91ED8010D911C91ECCF81E08F87C701DA
:1011E000DF91CF911F910F91FF90EF90089590E0C4
:1011F00080E0F6CFCF93DF93CDB7DEB769970FB618
:10120000F894DEBF0FBECDBFFC01DB018C918F5F78
:101210008C939E012D5F3F4F8DE0D9011D928A95E1
:10122000E9F729E0298384E08A8391E09D8383E0C4
:101230008E832A8721E22B879C879D879F8722E2C6
:10124000288B27E02B8B25E02C8B8E8B20E430E045
:10125000388F2F8B998F82818B8395858685998B8B
:101260008A8B838180688D8B49E150E0BE016F5F7E
:101270007F4F80E00E94C20569960FB6F894DEBFEA
:101280000FBECDBFDF91CF910895CF93DF938091B3
:101290002B06811167C081E080931E0680931F0694
:1012A00024E236E030932106209320061092230694
:1012B0001092220627E732E030931B0620931A068D
:1012C00010922606109225061092280610922706E4
:1012D0008093290680932A0681EC809324060E943D
:1012E0001C06FC01818190911E06482F490F55274D
:1012F000551F483051059CF5A281B381109709F51F
:101300002AE136E033832283208120931C068093D8
:101310001D0680911F06820F808320912006A22F38
:10132000B09121068A2F821B8917C8F481813D91D3
:10133000C82FD0E0C85BD94F38838F5F8183F2CF4D
:10134000D90118962D913C91199721153105C1F7B6
:101350002AE136E019963C932E931897D5CF81E079
:1013600080932B068AE196E0DF91CF9108950F9349
:101370001F93CF93DF93EB018A010E9445099801E7
:10138000AE0161E0DF91CF911F910F910C946F0836
:10139000CF93DF9300D000D0CDB7DEB79091200778
:1013A00099838A836B834C8344E050E0BE016F5F76
:1013B0007F4F8EE197E00E94B7090F900F900F903A
:1013C0000F90DF91CF9108951092200740E060E0E8
:1013D00080E00C94C8099091200780958923981784
:1013E00039F08093200740E060E080E00C94C80969
:1013F000089590912007892B981739F08093200742
:1014000040E060E080E00C94C8090895CF93DF933A
:10141000EC010E944509AE014C5F5F4F28E030E0CF
:1014200062E0DF91CF910C946F080F931F93CF93DD
:10143000DF93EB018A010E9445099801AE0164E047
:10144000DF91CF911F910F910C946F08EBE4F7E0BF
:1014500030E020E0419151912F5F3F4F452B79F4CF
:10146000220F331FF901E75BF84F9183808348E037
:1014700050E06BE477E089E497E00C94150A24309F
:10148000310541F7F4CFE9E4F7E0228133812817F1
:10149000390711F413821282329627E0E135F20700
:1014A000A1F748E050E06BE477E089E497E00C9422
:1014B000150ACF93DF93EC018D85882329F08150A5
:1014C0008D87DF91CF9108959C818E819817C8F701
:1014D00088896827E881F9810084F185E02D42E060
:1014E000CE0109958C818F5F8C83EBCFDC01ED9170
:1014F000FC910084F185E02D40E009940F931F9347
:10150000CF938C01FC016483C085C60F6C2F6F7074
:101510000E94760A6C2F62956F706061C801CF914E
:101520001F910F910C94760AFC0127812695269530
:101530002695621738F465832385620F6770606BA8
:101540000C94760A08951F93CF93DF93EC01142F28
:101550008E81681718F4CE010E947E0A612FCE0199
:10156000DF91CF911F910C94940ACF92DF92EF926A
:10157000FF920F931F93CF93DF93EC01F62EC42EAF
:10158000D22E1D868F81869586958695081710F038
:101590000FEF080F1D2D011780F0412F6F2DCE0189
:1015A0000E94A30AEF2CCE1430F06889CE010E946D
:1015B000590AE394F8CF1F5FEECF4D2D6F2DCE016A
:1015C000DF91CF911F910F91FF90EF90DF90CF901F
:1015D0000C94A30A2F923F924F925F926F927F9248
:1015E0008F929F92AF92BF92CF92DF92EF92FF9233
:1015F0000F931F93CF93DF9300D000D000D0CDB7CF
:10160000DEB7DC011E962D913C912115310509F4C0
:1016100078C19E838D83F90132966490319644910E
:10162000E42EF12CB7E0EB0EF11C53E0F594E794B7
:101630005A95E1F7E982319654913196E4916D30F3
:1016400029F5FC01868181111BC081E090E026967E
:101650000FB6F894DEBF0FBECDBFDF91CF911F91C3
:101660000F91FF90EF90DF90CF90BF90AF909F9041
:101670008F907F906F905F904F903F902F90089544
:1016800060E08D819E810E947E0ADFCF6A3009F082
:1016900067C0AD81BE8116968C911697882321F084
:1016A00060E0CD010E947E0AED81FE8101890E9DE0
:1016B000E02C112465816E0D8485882349F02781F3
:1016C0002695269526958E2D821B860F18162CF0B2
:1016D0008D819E810E94940AB8CFAD81BE811B96F8
:1016E0009C911B97890F87701B968C931B972E19C3
:1016F00015962C9315971E96ED91FC91309771F1EC
:101700003396E491F0E0379633E0F595E7953A9516
:10171000E1F70E9F002D1124EFEFE20F0E0FED8188
:10172000FE81468141506481CF010E94B50AAD819E
:10173000BE811C968C911C97813009F086CF1B9638
:101740006C911B97660F660F660F6F731A966C93FA
:101750001A976064CD010E94760A77CF00E0DCCF53
:10176000651708F4CEC08E2F90E0FC01E50FF11D47
:101770006E171F060CF0C5C089010A5F1F4F651B5D
:10178000ED81FE8171855189759F502D11245C83F7
:10179000F90154912F5F3F4FF9012491352F2230E9
:1017A000310508F070C06E9CC0016F9C900D112433
:1017B000689FF001699FF00D11240E0F1F1F512C1F
:1017C000AD81BE811496BC91BA83ED81FE812580E6
:1017D000F585FB83862C912CAA24A394B12C312C63
:1017E0008981381608F08BC0412CAD81BE8151969D
:1017F0008C915197481608F07BC0EB811D96EC93B5
:10180000311002C0442051F0AD81BE8115964C913B
:1018100015974F5F6A81CD010E94A30AD12CC12C7C
:10182000C61408F058C0F801EC0DFD1D7490552049
:1018300061F0EA14FB0449F4E72DF0E0052C02C046
:10184000F595E7950A94E2F77E2EED81FE81818978
:10185000823081F4442009F43AC072948FE07822F7
:10186000E72DF0E0EF5BFA4F7490672D8D819E813C
:101870000E94590A672D8D819E810E94590A8FEF1F
:10188000C81AD80ACDCF477028E0522E541A4111F9
:1018900001C0512CF801612C30E020E0661631F0D7
:1018A0004491240F311D63943196F8CF600E712E50
:1018B000711CF3016490E29EF001E39EF00DF29E34
:1018C000F00D11248E0F9F1F080F191F79CFF72DD0
:1018D000FF707F2EC5CFD12CAC81DA1639F060E0D5
:1018E0008D819E810E94590AD394F6CF43947DCF77
:1018F0003394080D191DBFEFAB1ABB0A71CF622DCF
:10190000E7CE90E080E0A3CE0F93CF93DF93EC017E
:101910001B861A8660E40E94760A0F81069506955A
:10192000069501504E81415020E060E0CE010E94BA
:10193000B50ADF91CF910F910895FC01EA5AFF4F4C
:1019400021E02083DC01ED91FC910480F581E02D04
:1019500009940F931F93CF93DF93209119062F5F64
:10196000322F37703093190620FF2BC020E831FD4D
:101970002064347009F02062205FFC01EC012396A2
:1019800000E011E06485662329F070E0C8010E9440
:10199000E8316F5F6187322F369F030E30E0311DD3
:1019A0001124311110C01682662311F06150618735
:1019B0003196EC17FD0731F7DF91CF911F910F9111
:1019C000089520E0D4CF31503683EECF4F925F920E
:1019D0007F928F929F92AF92BF92CF92DF92EF92BF
:1019E000FF920F931F93CF93DF932C01EB010E9483
:1019F000C606F20127853089621B730B6A307105B8
:101A0000B0F3F8948A819B81181619060CF0CDC1A9
:101A1000E881F98165B1862E689485F835B13F7DFE
:101A200035B9DA848F812D2D281B822F2F834F8586
:101A3000042E000C550BAA81BB817D85FC84EE84AD
:101A40007F5FF394E3949E819884B984AB84118181
:101A5000C12C6C2D0C2D2C2D218111278894211146
:101A6000280F08F42FEF8195889470FD120F1795B9
:101A7000889471FD120F1795889472FD120F1795B7
:101A8000889473FD120F1795889474FD120F1795A3
:101A9000889475FD120F1795889476FD120F17958F
:101AA000889477FD120F17958894622F7111612F1A
:101AB0008D0D162F002C85B800C017FF35B9208179
:101AC0006627889400C000C0002C35B92111290F69
:101AD00000C0002C85B800C016FF35B908F42FEF00
:101AE0009195889400C000C0002C35B9F0FC620FBD
:101AF00000C0002C85B800C015FF35B967958894E3
:101B0000F1FC620F00C000C0002C35B967958894C5
:101B100000C0002C85B800C014FF35B9F2FC620F7C
:101B20006795889400C000C0002C35B9F3FC620FA3
:101B300000C0002C85B800C013FF35B967958894A4
:101B4000F4FC620F00C000C0002C35B96795889482
:101B500000C0002C85B800C012FF35B9F5FC620F3B
:101B60006795889400C000C0002C35B9F6FC620F60
:101B700000C0002C85B800C011FF35B96795889466
:101B8000F7FC620F00C000C0002C35B9679588943F
:101B900000C0002C85B800C010FF35B9122FF1101D
:101BA000162F9B0D00C000C0002C35B900C000C02E
:101BB000002C85B800C017FF35B9228166278894AC
:101BC00000C000C0002C35B92111290D00C0002C27
:101BD00085B800C016FF35B908F42FEFE40FF51FE4
:101BE00000C000C0002C35B9E0FC620F00C0002C22
:101BF00085B800C015FF35B967958894E1FC620F80
:101C000000C000C0002C35B96795889400C0002C36
:101C100085B800C014FF35B9E2FC620F679588945F
:101C200000C000C0002C35B9E3FC620F00C0002CDE
:101C300085B800C013FF35B967958894E4FC620F3E
:101C400000C000C0002C35B96795889400C0002CF6
:101C500085B800C012FF35B9E5FC620F679588941E
:101C600000C000C0002C35B9E6FC620F00C0002C9B
:101C700085B800C011FF35B967958894E7FC620FFD
:101C800000C000C0002C35B96795889400C0002CB6
:101C900085B800C010FF35B9122FE110162F9194AE
:101CA00000C000C0002C35B99A0C00C000C085B837
:101CB00000C017FF35B921816627889400C000C095
:101CC000002C35B92111280F00C0002C85B800C0A8
:101CD00016FF35B908F42FEF8195889400C000C035
:101CE000002C35B970FD620F00C0002C85B800C013
:101CF00015FF35B96795889471FD620F00C000C06B
:101D0000002C35B96795889400C0002C85B800C0B8
:101D100014FF35B972FD620F6795889400C000C04A
:101D2000002C35B973FD620F00C0002C85B800C0CF
:101D300013FF35B96795889474FD620F00C000C029
:101D4000002C35B96795889400C0002C85B800C078
:101D500012FF35B975FD620F6795889400C000C009
:101D6000002C35B976FD620F00C0002C85B800C08C
:101D700011FF35B96795889477FD620F00C000C0E8
:101D8000002C35B96795889400C0002C85B800C038
:101D900010FF35B9122F7111162F8D0D00C000C024
:101DA000002C35B9119709F086CE4A815B8120EE6F
:101DB00031E0DA010E940232DC01CB01F4E0B69599
:101DC000A79597958795FA95D1F730E020E0B9016E
:101DD000EAE94E9F040E611D5E9F600D711D112486
:101DE000650F711D860F971FA11DB11D893E43E030
:101DF0009407A105B10508F434C0885E9340A10999
:101E0000B10942E0B695A795979587954A95D1F780
:101E100047E0849F080E211D949F200D311D112441
:101E2000290F311D6091180670E0860F971F820FF1
:101E3000931F40913406509135066091360670919B
:101E40003706292F3327420F531F611D711D409301
:101E500034065093350660933606709337068093A8
:101E6000180678940E94C606F201708B6787DF918E
:101E7000CF911F910F91FF90EF90DF90CF90BF9087
:101E8000AF909F908F907F905F904F900895259A8C
:101E900008956F927F928F92CF92DF92EF92FF928E
:101EA0000F931F93CF93DF93CDB7DEB762970FB633
:101EB000F894DEBF0FBECDBF6C017A013801822ECF
:101EC000DC011C962C91CA0157FF04C08827992772
:101ED000841B950B7A8369839C838B839E838D837C
:101EE0006D867E868F86213049F5CE0101960E944F
:101EF000A90C83E0888B1A8A198AF7FE02C08DEF3D
:101F0000888BD601ED91FC910484F585E02DBE010E
:101F10006F5F7F4FC601099562960FB6F894DEBFDA
:101F20000FBECDBFDF91CF911F910F91FF90EF902A
:101F3000DF90CF908F907F906F9008951C861B86C6
:101F40001A86198618861F82D4CFEF92FF920F93BC
:101F50001F93CF93DF93CDB7DEB762970FB6F89498
:101F6000DEBF0FBECDBF7C01DC011C968C917A8355
:101F700069835C834B835E834D830D871E872F8728
:101F80008130F9F4CE0101960E94A90C188A1A8AB0
:101F9000198AD701ED91FC910484F585E02DBE01ED
:101FA0006F5F7F4FC701099562960FB6F894DEBF49
:101FB0000FBECDBFDF91CF911F910F91FF90EF909A
:101FC00008951C861B861A86198618861F82DECF06
:101FD00090E080E00895FC018585968508950F9333
:101FE0001F93CF93DF9300D01F92CDB7DEB7AB0125
:101FF00019821A821B82DC01ED91FC910190F08123
:10200000E02D00E010E020E0BE016F5F7F4F0995FA
:102010000F900F900F90DF91CF911F910F91089526
:10202000FC01818192819483838321853285408163
:10203000A42FA150BB0B2A173B0774F42F5F3F4F0F
:1020400032872187AC014A5F5F4F2417350771F44F
:102050000196928381830895473020F081E090E0DB
:102060009483838312821182128611860895EF92DF
:102070000F93CF93CE2D063061F0083021F581E02B
:10208000DB0114960C910023A9F0CC2321F0C0E0D1
:1020900008C082E0F5CF90912007982339F00E9484
:1020A000EB098C2FCF910F91EF9008950E94F909C1
:1020B000C02FF7CFCC2319F00E94EB09E8CF0E9484
:1020C000F909C1E0EECFE11023C0033011F0053073
:1020D000F1F6DC01ED91FC911197EF2B79F40330CF
:1020E00029F42FEF3FEF2D933C93DBCF053079F6AA
:1020F00021E030E0FC0131832083D3CF1D921C927C
:10210000033011F0053019F6E12C0E943710C9CFC9
:10211000033059F42223A9F0FC0111821082E12C32
:1021200005E021E00E943710B2CF053009F0AFCFB3
:10213000442339F0DC011D921C92E12C03E041E0C4
:10214000F1CFFC0111821082A2CF0F93CF93DF93C6
:10215000FC01C42F643011F4C0E030C06930E0F7F6
:10216000A485B5851596DC91D11121C02111F4CF3C
:10217000262F30E0C1114AC0633008F041C0818988
:102180008150818B862F63E00E94DC31911103C066
:1021900080898150808BC901019663E070E00E94C4
:1021A000E831892BC9F680898F5F808B07C0222395
:1021B00051F0E62FF0E0E55FF94FC0818C2FDF9101
:1021C000CF910F9108950111D3CF4111C5CFA62F03
:1021D000B0E0A55FB94F8C91882341F01C9201E0DB
:1021E00020E041E0CF010E94A510E8CF81E08C9370
:1021F00001E020E040E0CF010E94A510CD2FDECF0E
:10220000663008F4BFCF81898F5FBBCF6330C8F4DD
:1022100081898F5F818B862F63E00E94DC31911171
:1022200003C080898F5F808BC901019663E070E0F5
:102230000E94E831892B09F08FCF80898150808BF3
:102240008BCF663040F381898150E4CFCF93FC017E
:10225000A485B58517968C911797811110C06623B8
:10226000A1F1693091F1862F877F823079F0663055
:1022700031F1683031F1673031F120E01DC0643058
:1022800021F1693011F182E06A30B9F716969C911C
:10229000169721113AC01496CC91843009F59923F0
:1022A000F9F0CC23A1F0411107C0238981E0282750
:1022B000238B211101C0128A822FCF91089588E0CB
:1022C000E5CF80E1E3CF84E0E1CF81E0DFCF4423BD
:1022D00021F0138A128A2389EFCF81E0838BFBCF11
:1022E000CC2351F04111E8CF90912007982331F48D
:1022F0000E94F9092C2FE0CF442319F00E94EB092A
:10230000BCCF0E94F90921E0D7CF843011F491119C
:10231000E2CF90912007982321E071F6AECFEF92A3
:10232000FF920F931F93CF93DF93EC01162FF42EA0
:10233000613031F08DEF860F833010F0F12C2AC020
:10234000EC85FD85E580E1101EC02111F7CFF1106D
:1023500073C0113019F0143009F05BC086818823F6
:1023600009F43FC021E040E067E0CE010E94261161
:102370008823B9F1198A8A898823C1F11A8A00E071
:1023800020E040E01EC0222369F0E12FF0E0E55F8D
:10239000F94FF0808F2DDF91CF911F910F91FF901A
:1023A000EF9008950111D3CFF110C8CFE12FF0E0E5
:1023B000E55FF94F8081882349F0108201E020E039
:1023C00041E0612FCE010E948F11E4CF81E0808334
:1023D00001E020E040E0612FCE010E948F11FE2C31
:1023E000D9CF8989882361F0198AC9CF113011F4B6
:1023F0001A8BD0CF143009F0A1CF8FEF8A8BCACFC0
:102400008FEF113021F0143009F098CF81E0898BE3
:10241000C1CF133019F0153009F090CF88898111A0
:1024200009C08FEF133021F0153009F087CF81E01C
:10243000888BB0CF188AA3CF113079F4EC81FD815D
:10244000868D882399F1198A1A8A00E020E040E0FD
:1024500064E0CE010E948F1171CF143061F4EC81E1
:10246000FD81838D882311F1198A1A8A00E020E00A
:1024700040E061E0EECF133059F4EC81FD81878DAF
:102480008823B9F0188A00E020E040E065E0E1CF61
:10249000153009F053CFEC81FD81858D882349F0FB
:1024A000188A00E020E040E063E0D3CF198A1A8A5E
:1024B00045CF188A43CFCF93DF93EC011B86E88189
:1024C000F9810284F385E02D0995E881F981008482
:1024D000F185E02DCE010995E881F9810680F7812B
:1024E000E02DCE0109958B85882339F0E881F981AB
:1024F0000190F081E02DCE010995988969899111AB
:1025000005C0611103C08A89882311F18E85689FF7
:10251000602D112440E0989F802D11240E94C8094D
:102520004A894423A9F060E080E00E94C8096E85D2
:102530007F856115710561F084E190E00E94E831CA
:10254000072E000C880B990BDF91CF910C94EB06B2
:10255000DF91CF910895FC01A481B58195968C916E
:102560009597882311F096968C9194899817B1F0DD
:102570008823A1F0A485B58517969C91179721E033
:10258000922717969C93ABE0B6E028E136E01D92C7
:102590002A173B07E1F7108A118A128A848B089563
:1025A000EF92FF920F931F93CF93DF93EC01EC8197
:1025B000FD8182A9882371F08E859F8501979F8771
:1025C0008E87AC85BD852D913C918217930714F4BD
:1025D0003F872E8783A9882371F08E859F8501967A
:1025E0009F878E87EC85FD852281338128173907E7
:1025F00014F43F872E87F12CE12C11E0EC81FD8152
:10260000EE0DFF1D87A1882399F020E040E06E2D9C
:10261000CE010E942611EC85FD85878100E020E037
:1026200040E06E2D882391F0CE010E94A5101B87FB
:102630008FEFE81AF80A8DE0E816F104F9F6DF9159
:10264000CF911F910F91FF90EF900895CE010E94BE
:102650008F11EDCFEF92FF920F93CF93DF937C0119
:10266000D0E0C0E0D7011496ED91FC91EC0FFD1F76
:1026700084A98823B9F020E041E06C2FC7010E94B3
:102680002611D7011C96ED91FC91878100E020E096
:1026900041E06C2F882381F0C7010E94A51081E0E2
:1026A000F70183872196CD30D105E1F6DF91CF91F7
:1026B0000F91FF90EF900895C7010E948F11EFCF07
:1026C000EEEFF5E0119286E0EB30F807D9F70895C8
:1026D000FC0124813581F901B796A9014C5C5F4F5B
:1026E0001192E417F507E1F72F5B3F4F1192E217C4
:1026F000F307E1F721E0FC0123870895FC019C0129
:10270000285F3F4F90E080E04481411101961482A0
:102710003196E217F307C1F708958FE297E00E9420
:102720007E138FE297E00C94060ACF93DF93EC01BF
:102730008A819B810E94840C0E948D130E94E4096F
:102740001C861D861E861F86188A1A8A198A1C8A6C
:102750001B8A83E08D8B1B8668EE73E080E090E03F
:10276000DF91CF910C94EB06CF93DF938FE297E04C
:102770000E947E13EC01892B21F08FE297E00E94EA
:10278000060ACE01DF91CF910895CF93DF93EC013C
:102790001B86EC81FD8182A9811103C083A9882356
:1027A000A1F084A1882389F0EC85FD8514820E9424
:1027B00060130E94B413EC85FD85AC81BD81D39676
:1027C0008C918483CE010E946813E881F981008492
:1027D000F185E02DCE010995E881F9810284F38528
:1027E000E02DCE010995E881F9810680F781E02D81
:1027F000CE0109958B85882339F0E881F981019014
:10280000F081E02DCE0109958B899C89009751F0CC
:10281000998940E060E0989F802D1124DF91CF914D
:102820000C94C809DF91CF9108950F931F93CF9314
:10283000DF93EC01EC81FD8115A1111116A18D89A9
:10284000811799F0112389F0888901E08027888B0E
:102850000E9460131C8A1B8A0E94B4130E94E40920
:102860008A819B810E94840C0B871D8BDF91CF9105
:102870001F910F910895CF93DF93EC011B86EC819C
:10288000FD8182A9811103C083A9882371F184A1EC
:10289000882359F1EE85FF8514820E9460130E94FF
:1028A000B413EE85FF85AC81BD81D3968C91848372
:1028B000CE010E946813E881F9810680F781E02D3E
:1028C000CE010995E881F9810084F185E02DCE01E2
:1028D00009958B85882339F1E881F9810190F08190
:1028E000E02DCE01DF91CF9109948889882319F3D7
:1028F00083A9882301F30E9460130E94B413EE851C
:10290000FF85868191E08927868381110AC089E04D
:102910008887CE010E9468138A819B810E94840C63
:10292000CACF8CE0F5CFDF91CF910895CF93DF939D
:10293000DC0190E2960F9830B0F414968C911497C5
:1029400021E030E001C0220F9A95EAF7442341F0DC
:10295000282B14962C9381E090E0DF91CF9108957D
:1029600020952823F6CFFD0136964423D1F0CD01E2
:102970000C96EF012991621771F3C817D907D1F7A7
:1029800090E080E02191211105C0A80FB91F169693
:102990006C93E1CF019686309105A1F790E080E03D
:1029A000DCCF90E080E02191621305C0A80FB91F31
:1029B00016961C92D0CF019686309105A1F7EECFE6
:1029C000CF93DF9341E0682F8FE297E00E94961447
:1029D000EC01892B21F08FE297E00E94060ACE01DC
:1029E000DF91CF910895CF93DF93EC01E881F981D6
:1029F0000680F781E02D09958C819D81FC01B796B9
:102A0000C49621E03191311102C0348531112B87F8
:102A1000E817F907B9F78B85882339F0E881F98140
:102A20000190F081E02DCE01099589899A899C8BCE
:102A30008B8B8C85882351F080E50E94E0140E94E6
:102A4000B4138FE40E94E0140E94B4138D85882390
:102A500051F040E06BEF80E00E94C80940E065E083
:102A600080E00E94C8098E85882391F081E00E9451
:102A7000F90961E070E080E090E00E94EB0681E0FF
:102A80000E94EB0961E070E080E090E00E94EB06BC
:102A90008F85882391F082E00E94F90961E070E05F
:102AA00080E090E00E94EB0682E00E94EB0961E08A
:102AB00070E080E090E00E94EB0688898823A1F016
:102AC00084E00E94F90961E070E080E090E00E94FB
:102AD000EB0684E00E94EB0961E070E080E090E0AA
:102AE000DF91CF910C94EB06DF91CF910895CF93B6
:102AF000DF9340E0682F8FE297E00E949614EC018C
:102B0000892B21F08FE297E00E94060ACE01DF9127
:102B1000CF910895EF920F93CF93DF93DC01E42FD1
:102B2000F0E06E0F7F1FEB0188815096CC9150979B
:102B300096EC980FC11118C09C3098F101114AC051
:102B40001C960D90BC91A02D1496CC91CC23A1F194
:102B5000211108C0E250FA4F9081992341F110826F
:102B60000E947715C0E01DC09C3040F7433031F023
:102B70008BEF840F823010F04830A1F70111F2CFB3
:102B80001496ED91FC9115971E966D917C911F976F
:102B9000E22E042F278D458DCD0143960E943710DC
:102BA000C82F8C2FDF91CF910F91EF90089591E076
:102BB00090830E94E014F5CFE250FA4F222321F0D7
:102BC00010820E947715EDCF91E090830E94E0146F
:102BD000C1E0E7CFE250FA4FC081E3CFEF92FF921E
:102BE0000F93CF93DF937C01C0E0D1E0D70118961B
:102BF0008C911897C817D8F41496ED91FC911597FD
:102C0000EC0FF11D84A9882381F050968C9100E08F
:102C100021E04C2F6EE072E0882311F067EE71E046
:102C2000C7010E948A15F701D387CF5FDFCFDF91FD
:102C3000CF910F91FF90EF900895FF920F931F9304
:102C4000CF93DF93EC01EC81FD8182A9882371F0A1
:102C500089899A8901979A8B898BAE85BF852D9139
:102C60003C918217930714F43A8B298B83A988230C
:102C700071F089899A8901969A8B898BEE85FF85F7
:102C8000228133812817390714F43A8B298B10E0FD
:102C9000FF24F39488851817B8F4EC81FD81E10FC7
:102CA000F11D87A1882371F0888900E020E0412F81
:102CB0006EE072E0882311F067EE71E0CE010E94B1
:102CC0008A15FB861F5FE6CFDF91CF911F910F9191
:102CD000FF900895CF92DF92FF920F931F93CF93AF
:102CE000DF938C01F42EE62FF0E0EE0FFF1FEB5385
:102CF000FF4FC590D490D801ED91FC910484F585E7
:102D0000E02D6C2DC8010995EC01892B11F4F1100F
:102D100070C0D0FE0CC0D801ED91FC910484F58503
:102D2000E02D4F2D60EEC8010995C82BD92BD1FE9F
:102D30000CC0D801ED91FC910484F585E02D4F2D58
:102D400061EEC8010995C82BD92BD2FE0CC0D80161
:102D5000ED91FC910484F585E02D4F2D62EEC801C4
:102D60000995C82BD92BD3FE0CC0D801ED91FC914D
:102D70000484F585E02D4F2D63EEC8010995C82B1D
:102D8000D92BD4FE0CC0D801ED91FC910484F585BB
:102D9000E02D4F2D64EEC8010995C82BD92BD5FE27
:102DA0000CC0D801ED91FC910484F585E02D4F2DE8
:102DB00065EEC8010995C82BD92BD6FE0CC0D801E9
:102DC000ED91FC910484F585E02D4F2D66EEC80150
:102DD0000995C82BD92BD7FE0CC0D801ED91FC91D9
:102DE0000484F585E02D4F2D67EEC8010995C82BA9
:102DF000D92BCE01DF91CF911F910F91FF90DF90E2
:102E0000CF9008950F931F93CF93DF93EC0141E090
:102E10000E946A168C01892B39F0E881F9810284BD
:102E2000F385E02DCE010995C801DF91CF911F9167
:102E30000F910895FF920F931F93CF93DF93EC01AF
:102E4000F62E0E9402178C01892B71F040E06F2D45
:102E5000CE010E946A16892B39F0E881F98102843B
:102E6000F385E02DCE010995C801DF91CF911F9127
:102E70000F91FF900895FC0185A5811116C086A5CC
:102E8000811113C087A5811110C081A981110DC0C6
:102E900082A581110CC083A5811109C084A581116F
:102EA00006C080A9811103C0089583E0089585E0DC
:102EB0000895FC0180A5811110C086A581110FC065
:102EC00082A581110EC084A581110DC083A5811139
:102ED0000CC080A9811109C0089582E0089583E0A3
:102EE000089584E0089581E0089585E0089584E9D7
:102EF0008093BC0085E69091BC0094FF03C0815094
:102F0000D1F7089581E00895FC016093BC002FEF94
:102F10003FEF8091BC0087FF06C09091B900987F79
:102F2000908381E008952150310999F780E0089558
:102F3000CF93DF93EC016093BB0064E80E94841799
:102F4000882329F081E09881983209F080E0DF91B0
:102F5000CF910895DF92EF92FF920F931F93CF933B
:102F6000DF93EC01D62EF42E8C89882329F04111B1
:102F700003C00E9477171C8A8E010E5E1F4F8C893A
:102F8000811119C0EB8864EAC8010E948417882364
:102F900061F08A89883011F0803139F4EE0CE092CA
:102FA000BB0064E8C8010E94841760E0F11060E48F
:102FB000C8010E9498176D2DC8010E94981782E0E1
:102FC000F8120BC08C898F5F8C8BDF91CF911F9192
:102FD0000F91FF90EF90DF9008950E9477171C8A61
:102FE000F4CF089590E080E00895EBE4F7E088E006
:102FF000DF011D928A95E9F748E050E0BF0189E4BE
:1030000097E00C94150ACF93DF93EC011B86EC81BB
:10301000FD8182A9811103C083A98823A1F084A125
:10302000882389F0EE85FF8514820E9460130E9438
:10303000F517EE85FF85AC81BD81D3968C91848395
:10304000CE010E946813E881F9810680F781E02DA6
:10305000CE010995E881F9810084F185E02DCE014A
:1030600009958B85882349F0E881F9810190F081E9
:10307000E02DCE01DF91CF910994DF91CF9108959A
:103080000E941D32FB0101900020E9F73197AF014A
:10309000461B570BDC01ED91FC910280F381E02D82
:1030A00009946115710511F00C94421890E080E0CC
:1030B0000895CF92DF92EF920F93CF93DF93EC01BD
:1030C00069018985EA81FB81108AE11007C0EC81E2
:1030D000FD81E00FF11D928D992321F0EA81FB81A2
:1030E0009FEF908B869F602D11248A819B810E9487
:1030F000A30AB6018A819B81DF91CF910F91EF9056
:10310000DF90CF900C945118CF92DF92EF920F93F3
:103110001F93CF93DF93EC016B01042F88858A30D6
:1031200008F54930B8F4842F63E00E94DC31692F40
:10313000660F660F6D5F4BEA049F412D1124469583
:10314000842F880F840F41E0480FE22E9601CE01B4
:103150000E945918DF91CF911F910F91EF90DF904E
:10316000CF9008954930D0F46BEA469F612D112429
:103170006695962F990F690F842F861B682F660F0F
:10318000660F8985883040F06C5F8BEA089F812D3F
:1031900011248E7F43E0D8CF6A5FF7CF47EF400F0F
:1031A000842F817040FD83E04695EA81FB81108A7F
:1031B000211109C02C813D81020F132F111DF8012F
:1031C000928D992321F0EA81FB819FEF908B682FEC
:1031D000660F680F660F8A819B810E94A30AB60161
:1031E0008A819B81DF91CF911F910F91EF90DF90AA
:1031F000CF900C9451180F931F93CF938C01C0E084
:10320000D80118968C911897C817F8F48C2F90E075
:103210009C01220F331F1696ED91FC911797E20F38
:10322000F31F608171811E96ED91FC912481222310
:1032300051F082509A4FFC0120814C2FC8010E940E
:103240008418CF5FDDCF20E0F8CFCF911F910F9191
:1032500008950F931F93CF938C01C0E0D801189667
:103260008C911897C81740F58C2F90E09C01220F85
:10327000331F1696ED91FC911797E20FF31F6081B3
:1032800071811E96ED91FC911F972481222391F06C
:103290001C96ED91FC91E80FF91F2081233051F02D
:1032A00082509A4FFC0120814C2FC8010E94841843
:1032B000CF5FD4CF20E0F8CFCF911F910F91089529
:1032C0001F93CF93DF93FC0123852223B1F0EC0100
:1032D00010E08885181788F4812F90E0880F991FD7
:1032E000EE81FF81E80FF91F6081718120E0412F9D
:1032F000CE010E9484181F5FECCFDF91CF911F9108
:103300000895CF93DF93EC01EC81FD8182A988239E
:1033100081F08A819B810E94840C89899A89019716
:103320009A8B898B97FF05C08D898150990B9A8B59
:10333000898BEC81FD8183A9882381F08A819B811F
:103340000E94840C89899A8901969A8B898B2D8990
:103350002817190609F014F41A8A198A89899A8992
:10336000009741F5EC81FD8181A5882321F08C85B2
:1033700091E089278C8784A5882321F08D8591E0B1
:1033800089278D8787A1882321F08E8591E0892761
:103390008E8782A5882321F08F8591E089278F87EA
:1033A00085A5882321F0888991E08927888BDF9182
:1033B000CF9108958130910509F043C0EC81FD81E2
:1033C00080A5882361F080EE0E94E01481EE0E94C7
:1033D000E01465E78FE297E00E94021722C083A500
:1033E000882311F080EEF3CF86A5882329F080EEA4
:1033F0000E94E01462E7EECF84A58823B1F082EE4C
:103400000E94E01464E78FE297E00E9402170E9496
:10341000B41382E50E94E0140E94B41388E20E9473
:10342000E014DF91CF910C94B41385A5882309F49F
:10343000BECF80EE0E94E01482EE0E94E01463E7AB
:10344000C9CF029709F0B3CFEC81FD8180A5882315
:1034500099F180EE0E94E01481EE0E94E01460E792
:103460008FE297E00E9402170E94B4136EE571E0AC
:1034700080E090E00E94EB0666E473E08FE297E064
:103480000E9442186CE473E08FE297E00E944218B9
:103490006EE571E080E090E00E94EB066FE473E07F
:1034A0008FE297E00E9442186CE473E08FE297E0AD
:1034B000DF91CF910C94421883A5882329F080EEE8
:1034C0000E94E01482EE83CF86A5882309F46FCF93
:1034D00080EE0E94E01482EE0E94E01462E67ACF51
:1034E000CF92DF92EF92FF920F931F93CF93DF93D0
:1034F000EC018B01CB010E9452317C01C12CD12CFB
:10350000EC2DF0E0EE15FF05B0F4E00FF11F649133
:103510006A3041F44D814F5F60E0CE010E94A30A02
:10352000D12C07C0CE010E94E805D39484E18D150B
:1035300088F3C394E5CFDF91CF911F910F91FF9056
:10354000EF90DF90CF9008953F924F925F926F92ED
:103550007F928F929F92AF92BF92CF92DF92EF9223
:10356000FF920F931F93CF93DF93CDB7DEB72997C9
:103570000FB6F894DEBF0FBECDBF7C01DC01139601
:103580002D913C91149711968D919C912817390794
:1035900019F4662309F470C006E021E048E765E00D
:1035A000F701858196810E94B50AD7011596ED91A4
:1035B000FC911697118640E060E015968D919C91E4
:1035C0000E94A30A68E8F701858196810E94E805B8
:1035D00017E169E8D70115968D919C910E94E80545
:1035E0001150B9F765E8F701858196810E94E805D9
:1035F00047E060E0D70115968D919C910E94A30A47
:1036000067E8F701858196810E94E80517E169E87E
:10361000D70115968D919C910E94E8051150B9F73C
:1036200066E8F701858196810E94E80511E0412F47
:1036300060E0D70115968D919C910E94A30A64E8E1
:10364000F701858196810E94E805412F68E7D7013F
:1036500015968D919C910E94A30A64E8F7018581DB
:1036600096810E94E8051F5F173009F7D70115966C
:10367000ED91FC9181E08187F701018112812801A0
:10368000012E000C6608770833243A94D70111966E
:103690000D90BC91A02DB987A887F701C080D12CCF
:1036A000CD010596801791070CF488C08785202FDF
:1036B0008823C1F04601F1E08F1A9108092C000C13
:1036C000AA08BB0822273327A901281939094A0962
:1036D0005B09C301B2010E94CC31A50194010E9493
:1036E0007131280D0C151D050CF042C0D70115963F
:1036F0008D919C9116976801E885F985CE1ADF0AAD
:10370000FFEFCF1ADF0AA22EB12CAA0CBB1C199610
:103710002D913C914C2D68E00217130789F50E940A
:10372000A30A6AE8D70115968D919C910E94E8053D
:103730004C2D69E0F701858196810E94A30AD7018B
:103740001596ED91FC911697308A17962D913C9124
:103750001897A20EB31EF5016081718115968D91A7
:103760009C910E945118D7011596ED91FC91108AF9
:103770000F5F1F4FBFEF4B1A5B0A6B0A7B0A86CFA6
:103780000E94A30A66E975E0F701858196810E948F
:1037900051184C2D69E0D70115968D919C910E948E
:1037A000A30AF70127813085A20EB31ED5016D91C2
:1037B0007C91858196810E945118DACFDF92CF9259
:1037C0008185928501969F938F938AE593E09F93DD
:1037D0008F938E010F5F1F4F1F930F930E94223212
:1037E000F80101900020E9F73197E01BF10B8E2FD3
:1037F000880F880FE80F65E76E1B41E0D70115962B
:103800008D919C910E94A30AB801F7018581968150
:103810000E9451180FB6F894DEBF0FBECDBF299697
:103820000FB6F894DEBF0FBECDBFDF91CF911F91D1
:103830000F91FF90EF90DF90CF90BF90AF909F904F
:103840008F907F906F905F904F903F900895EF9290
:10385000FF920F931F93CF93DF93EC01F22E4883D7
:1038600078876F831A8619861C861B861E861D869E
:103870001A82198281E090E09C838B83EF8610E0AE
:10388000101729F0CE010E9410101F5FF9CF61E0E0
:10389000CE010E94A41AF0920207DF91CF911F91EE
:1038A0000F91FF90EF900895EF920F93CF93DF93D6
:1038B000EC018A819B810E94840C8FEF9FEF998B92
:1038C000888B8C819D810E945917FE01EA5AFF4F17
:1038D000BE016E5E7F4FE12C0081282F46E08E8571
:1038E0009F850E94271CDF91CF910F91EF90089543
:1038F000EF920F93CF93DF93EC01EA81FB81108A63
:103900008A819B810E94840C8FEF9FEF9F878E8717
:103910008C819D810E945917BE01605F7F4FE12C11
:1039200008A1282F44E08C859D850E94271CDF91EB
:10393000CF910F91EF900895EF920F93CF93DF9374
:10394000EC01EA81FB81108A8A819B810E94840CB0
:103950008FEF9FEF9F878E878C819D810E945917E3
:10396000BE01605F7F4FE12C0AA1282F45E08C85C6
:103970009D850E94271CDF91CF910F91EF900895B4
:10398000EF920F93CF93DF93EC018A819B810E948A
:10399000840C81E090E0998B888B8C819D810E94C2
:1039A0005917BE016E5E7F4FE12C00E0282F44E0E6
:1039B0008E859F850E94271CDF91CF910F91EF90FC
:1039C0000895CF93DF93FC01218532854091020752
:1039D000461709F1EC0160930207633089F1C901D0
:1039E00099276530D1F06230B1F44181528154831E
:1039F000438312161306A4F421503109328721871C
:103A00002417350724F4415051095283418360E063
:103A1000CE010E94A41A8FEF9FEFDF91CF910895FE
:103A20002081822F90E0273038F0148213829C018D
:103A3000265031093283218301979A878987E7CFFE
:103A40000E941010E4CFCF92DF92EF92FF920F937B
:103A50001F93CF93DF93CDB7DEB72C970FB6F894B3
:103A6000DEBF0FBECDBF7C01DC011296ED91FC9153
:103A70001397108A1F968C911F978F931E968C9187
:103A80008F9380E693E09F938F938E010F5F1F4F7C
:103A90001F930F930E94223241E06DE2F701828171
:103AA00093810E94A30AB801D70112968D919C912F
:103AB0000E9451180F900F900F900F900F900F9041
:103AC00010E0F7018085181708F041C0812F90E0C1
:103AD0000484F585E02D2781880F991F21111EC0D0
:103AE0008B5C9D4FDC01CD90DC901B3070F521E0AC
:103AF00040E0612FC7010E942611811107C000E03C
:103B000021E040E0612FC7010E948F11282F412F33
:103B1000B601C7010E9484181F5FD3CF855E9D4FF9
:103B2000FC01C080D1801B3080F421E040E0612F97
:103B3000C7010E9426118111E9CF00E021E040E099
:103B4000612FC7010E94A510E1CF20E0E0CF2C96A5
:103B50000FB6F894DEBF0FBECDBFDF91CF911F919E
:103B60000F91FF90EF90DF90CF900895CF92DF926A
:103B7000EF92FF920F931F93CF93DF93CDB7DEB7F2
:103B80002C970FB6F894DEBF0FBECDBF7C0110E0BE
:103B9000D70118968C911897181728F5C12ED12C9B
:103BA00050968C91CC0CDD1C01E021E0412F81115D
:103BB00011C06EE072E0C7010E948A15F601EC5058
:103BC000FE4F60817181282F412FC7010E94841808
:103BD0001F5FDECF67EE71E0C7010E948A15F60114
:103BE000E353FE4FEECF1296ED91FC911397108A9E
:103BF00050968C915097882321F141E06DE2129606
:103C00008D919C910E94A30AF70182898F938189EB
:103C10008F9380E693E09F938F938E010F5F1F4FEA
:103C20001F930F930E942232B801D70112968D91F3
:103C30009C910E9451180F900F900F900F900F9031
:103C40000F902C960FB6F894DEBF0FBECDBFDF915C
:103C5000CF911F910F91FF90EF90DF90CF9008953B
:103C6000CF92DF92EF920F931F93CF93DF93CDB755
:103C7000DEB729970FB6F894DEBF0FBECDBF6C013B
:103C8000DC0151968D919C915297009709F07EC06E
:103C90001C96EC9002E02CE633E043E066E0C601BF
:103CA0000E945918F601E58405E024E733E045E079
:103CB00066E0C6010E945918D6011E96EC9000E0FD
:103CC0002BE733E043E060E0C6010E945918F6019B
:103CD000E78403E023E833E045E060E0C6010E94AA
:103CE0005918D6015096EC9006E02BE833E047E0F7
:103CF00060E0C6010E945918E12C0BE021EC33E092
:103D000040E060E0C6010E9459180CE025EC33E069
:103D100040E062E0C6010E945918D6011296ED916A
:103D2000FC911397108A51968D919C9101969F93C7
:103D30008F9389EC93E09F938F938E010F5F1F4FBA
:103D40001F930F930E94223240E062E3F6018281CA
:103D500093810E94A30AB801D60112968D919C917D
:103D60000E9451180F900F900F900F900F900F908E
:103D700029960FB6F894DEBF0FBECDBFDF91CF916D
:103D80001F910F91EF90DF90CF90089501970297C8
:103D900008F0B2CFE12C01E023E933E043E062E038
:103DA000C6010E94591804E022EA33E045E064E0CD
:103DB000C6010E94591807E029EA33E047E064E0B1
:103DC000C6010E945918F60181899289019781F4F0
:103DD00005E02FEA33E045E068E0C6010E9459188B
:103DE00006E025EB33E047E061E0C6010E94591888
:103DF000D6011296ED91FC911397108A40E069E686
:103E000012968D919C910E94A30AF6012189328914
:103E10008281938169EB73E02130310511F06DEB04
:103E200073E00E94511868CFFF920F931F93CF93B6
:103E3000DF93EC01F62E08811981C8010E945B31E5
:103E4000F81621F06F2DC8010E946331CE01DF9179
:103E5000CF911F910F91FF900895EF92FF920F93D2
:103E60001F93CF93DF9300D000D000D0CDB7DEB743
:103E7000FC018081898381818A8382818B83838114
:103E80008C83CE0101967C0101E010E01E830D833E
:103E9000F70161917F01CE0105960E94141F0F5F0B
:103EA0001F4F0530110591F726960FB6F894DEBF27
:103EB0000FBECDBFDF91CF911F910F91FF90EF907B
:103EC00008958F929F92AF92BF92CF92DF92EF921E
:103ED000FF920F931F93CF93DF93CDB7DEB72C974D
:103EE0000FB6F894DEBF0FBECDBF6C01DC0150965B
:103EF0008D919C915197049769F014968D919C91A6
:103F00000E945917182F682FF601868597850E9401
:103F1000E11C9C01D60150968D919C918F3F980792
:103F200009F007C12F3F3207A1F480E02C960FB6AD
:103F3000F894DEBF0FBECDBFDF91CF911F910F91DF
:103F4000FF90EF90DF90CF90BF90AF909F908F90B9
:103F500008952115310509F47CC121503109D6019C
:103F600051963C932E935097F601EA5AFF4F41E049
:103F7000420F40833297918380832115310569F484
:103F8000B601625E7F4FE12C00E0212F4BE0F6018D
:103F9000868597850E94271CC8CFB6016C5C7F4F31
:103FA000E12C2130310599F02230310541F4B60180
:103FB000665B7F4FE12C00E0212F45E0E8CF233006
:103FC000310569F4B601625E7F4FEE24E39400E0B0
:103FD000212F4BE0D6011E968D919C91DBCF243092
:103FE000310509F0A2CFF601828193810E94840CF1
:103FF000D6011C96ED91FC9180811F928F930FEC5E
:1040000013E01F930F934E01B5E08B0E911C9F920E
:104010008F920E942232D6011C96ED91FC918181F3
:104020001F928F931F930F935E01BBE0AB0EB11CE9
:10403000BF92AF920E942232D6011C96ED91FC9164
:1040400082811F928F931F930F937E01B9E0EB0E35
:10405000F11CFF92EF920E942232D6011C96ED9144
:10406000FC9183811F928F931F930F938E010F5F9B
:104070001F4F1F930F930E94223240E060E0F60131
:10408000828193810E94A30A6EE075E0D6011296A8
:104090008D919C910E94701A45E060E0F60182814A
:1040A00093810E94A30A69ED74E0D60112968D9166
:1040B0009C910E94701A40E060E5F6018281938134
:1040C0000E94A30AB401D60112968D919C910E9480
:1040D000511841E060E5F601828193810E94A30AB4
:1040E000B501D60112968D919C910E94511842E023
:1040F00060E5F601828193810E94A30AB701D6018F
:1041000012968D919C910E94511843E060E5F60152
:10411000828193810E94A30AB801D60112968D91E3
:104120009C910E9451180FB6F894DEBF0FBECDBF10
:10413000FCCE009729F5D6011E96ED91FC911F97B4
:1041400081859285AC015527F601EC5AFF4F6081BD
:1041500071816417750789F01C966D917C919AE0C6
:10416000899F802D1124DB018C93D6011C968D91A3
:104170009C91DC018C9180930307518340831CC088
:104180008130910559F5D6011E96ED91FC911F974E
:1041900041855285CA019927F601EC5AFF4F60818B
:1041A00071816817790731F01C966D917C91DB0164
:1041B00011964C93918380832F3F3F4F09F4B5CEE6
:1041C000F601848595850E942D1FD601ED91FC9105
:1041D0000480F581E02DC6010995A7CE82309105B6
:1041E000C1F4D6011E96ED91FC911F974185528531
:1041F000CA019927F601EC5AFF4F60817181681757
:104200007907C1F21C966D917C91DB0112964C935B
:10421000D1CF039709F089CED6011E96ED91FC917E
:104220001F9761857285AB015527F601EC5AFF4F48
:10423000808191818417950709F49FCF1C960D9179
:104240001C918AE0869F800D1124D80113968C93CF
:1042500094CF81E06BCEEF92FF920F931F93CF9399
:10426000DF9300D000D000D0CDB7DEB7FC01848151
:10427000898385818A8386818B8385E48C83CE01C3
:1042800001967C0108E210E01E830D83F701619125
:104290007F01CE0105960E94141F0F5F1F4F0C3245
:1042A000110591F726960FB6F894DEBF0FBECDBF6D
:1042B000DF91CF911F910F91FF90EF900895EF92B2
:1042C000FF920F931F93CF93DF93EC018C819D811D
:1042D0000E9459172E853F852F3F3F4F31F4682F9D
:1042E0008C859D850E94E11C8C018E859F858F3F6A
:1042F000980709F042C00F3F100761F181E00115F6
:10430000110549F1015011091F870E87102F0F5F0A
:1043100008A38A819B810E94840C40E060E08A812E
:104320009B810E94A30A8A819B81113001F1D0F008
:10433000123001F10A811B8146E060E0C8010E9451
:10434000A30A67EE73E0C8010E94701AEA81FB813C
:104350008FEF808B80E0DF91CF911F910F91FF90C5
:10436000EF90089564E874E00E94701AE3CF67E369
:1043700074E0FACF6FE074E0F7CF082FEE8CFF8C7B
:104380008130C1F020F08230C1F010E002C0F701AE
:1043900014818C819D810E943B17833089F4C70171
:1043A0000E942B21E881F9810480F581E02DCE0166
:1043B0000995D0CFF7011581ECCFF7011681E9CF30
:1043C000853039F481E01827013011F1F0F0023026
:1043D00011F144E06EE28A819B810E94A30AEA8186
:1043E000FB8182E0818BE12FF0E03C96EE0FFF1F16
:1043F000EC0FFD1F608171818A819B810E945118A1
:10440000EA81FB8181E0818BA5CFF7011483E1CFA5
:10441000F7011583DECFF7011683DBCFDF92EF9232
:10442000FF920F931F93CF93DF9300D000D0CDB7AF
:10443000DEB78C01FC011182108289E190E0938348
:10444000828314821582168288E290E00E945B319A
:10445000D82E898389E290E00E945B31E82E8A831E
:104460008AE290E00E945B31F82E8B838BE290E031
:104470000E945B318C83853471F0C8010F900F90DE
:104480000F900F90DF91CF911F910F91FF90EF90C0
:10449000DF900C942B21F801D482E582F6820F90F4
:1044A0000F900F900F90DF91CF911F910F91FF9080
:1044B000EF90DF900895CF93DF93EC0187E090E0D9
:1044C0000E942D3027E0FC0111922A95E9F79F8F79
:1044D0008E8F0E940E2281E088A3E881F9810480FA
:1044E000F581E02DCE01DF91CF910994CF93DF9339
:1044F000EC018A819B810E94840C87E090E00E94FD
:104500002D3027E0FC0111922A95E9F79F878E87CD
:104510000E940E220E94F51764EF71E080E090E0A7
:10452000DF91CF910C94EB06CF93DF93EC018A815E
:104530009B810E94840C87E090E00E942D3027E050
:10454000FC0111922A95E9F79F878E870E940E221F
:10455000EE81FF812081318180912401909125019C
:104560002817390711F481E0888B0E948D1364EFBE
:1045700071E080E090E0DF91CF910C94EB06EF9238
:10458000FF920F931F93CF93DF9300D000D000D002
:104590001F92CDB7DEB7FC018481898385818A8330
:1045A00086818B8387818C8385E48D83CE01019600
:1045B0007C0104E110E01F830E83F70161917F010C
:1045C000CE0106960E94141F0F5F1F4F093111057F
:1045D00091F727960FB6F894DEBF0FBECDBFDF91DF
:1045E000CF911F910F91FF90EF900895EF92FF925E
:1045F0000F931F93CF93DF93EC018C819D810E94D9
:1046000059172E853F852F3F3F4F31F4682F8C85FA
:104610009D850E94E11C8C018E859F858F3F9807A8
:1046200009F047C00F3F100771F181E00115110536
:1046300059F1015011091F870E87102F0F5F0AA330
:104640008A819B810E94840C40E060E08A819B818A
:104650000E94A30A8A819B81113011F1E0F012308F
:1046600011F1133019F10A811B8146E060E0C801A5
:104670000E94A30A67EE73E0C8010E94701AEA81E3
:10468000FB818FEF808B80E0DF91CF911F910F91A5
:10469000FF90EF90089568E973E00E94701AE3CFED
:1046A00065E673E0FACF69E173E0F7CF65EC72E09D
:1046B000F4CF082FE8A0F9A08130D1F030F082309B
:1046C000D1F08330D9F010E002C0F70114818C8161
:1046D0009D810E943B178330A1F4C7010E94BF2235
:1046E000E881F9810480F581E02DCE010995CBCFD9
:1046F000F7011581ECCFF7011681E9CFF70117819A
:10470000E6CF853049F481E01827013021F100F12E
:10471000023021F1033029F144E06EE28A819B816D
:104720000E94A30AEA81FB8182E0818BE12FF0E005
:104730003D96EE0FFF1FEC0FFD1F608171818A8196
:104740009B810E945118EA81FB8181E0818B9BCF84
:10475000F7011483E1CFF7011583DECFF70116834C
:10476000DBCFF7011783D8CFCF92DF92EF92FF9282
:104770000F931F93CF93DF9300D000D01F92CDB73C
:10478000DEB78C01CE0101966C0184E1E82EF12C9C
:10479000C7010E945B31F60181936F01FFEFEF1AB1
:1047A000FF0A89E1E816F10499F78D818534A9F0B3
:1047B000F8011482158216821782C8010F900F909B
:1047C0000F900F900F90DF91CF911F910F91FF905D
:1047D000EF90DF90CF900C94BF228981F801848301
:1047E0008A8185838B8186838C8187830F900F904C
:1047F0000F900F900F90DF91CF911F910F91FF902D
:10480000EF90DF90CF900895CF93DF93EC018A81F2
:104810009B810E94840C87E090E00E942D3027E06D
:10482000FC0111922A95E9F79D878C870E940E2240
:1048300088E090E00E942D3028E0FC0111922A953A
:10484000E9F79F878E8729E130E0FC0133832283DB
:104850000E94B423EC85FD858581888B81E090E002
:104860009A8B898B1C8A1B8A1D8A0E948D130E9439
:10487000E40968EE73E080E090E0DF91CF910C9462
:10488000EB06CF93DF93EC0188E090E00E942D309F
:1048900028E0FC0111922A95E9F799A388A329E160
:1048A00030E0FC01338322830E94B42381E08AA399
:1048B000E881F9810480F581E02DCE01DF91CF916F
:1048C0000994CF93DF93EC0188899989019751F47A
:1048D0008C819D810E945917682F8E859F850E942B
:1048E000E11C9C01888999898130910509F01CC1DE
:1048F0002F3F320709F454C12115310559F488E1DD
:1049000098E00FB6F894A895809360000FBE90933E
:104910006000FFCF2130310509F04DC084E090E008
:10492000998B888B81E290E00E942D302C813D8113
:104930004E855F856A817B81DC0113967C936E9343
:10494000129715963C932E93149717961C921E92CD
:10495000169729E018962C93189728E019962C930F
:1049600019971A962C931A9731E01B963C931B9734
:1049700063E572E011967C936E931D965C934E9363
:104980001C97E4E4F1E0509601900D922A95E1F72E
:1049900040914C0150914D0160914E0170914F0139
:1049A000FC01408F518F628F738F9F8F8E8FDF91AD
:1049B000CF910C945B222230310509F04EC083E088
:1049C00090E0998B888B83E290E00E942D302C81BF
:1049D0003D814E855F856A817B81DC0113967C93E6
:1049E0006E93129715963C932E93149717961C92DC
:1049F0001E92169729E018962C93189728E019967E
:104A00002C9319971A962C931A9721E01B962C93A6
:104A10001B972FE532E011963C932E931D965C93E5
:104A20004E931C972AE0E0E5F1E0509601900D923C
:104A30002A95E1F740914C0150914D0160914E0152
:104A400070914F01FC01428F538F648F758F9B8F44
:104A50008A8FDF91CF910C9441242330310509F0E6
:104A60009FC082E090E0998B888B87E590E00E9460
:104A70002D302C813D814E855F856C857D85EA8159
:104A8000FB81DC011396FC93EE93129715963C93F1
:104A90002E93149717961C921E92169729E018963B
:104AA0002C93189728E019962C9319971A962C9303
:104AB0001A9721E01B962C931B972BE632E0119658
:104AC0003C932E931D967C936E931C971F965C933C
:104AD0004E931E972CE0EAE5F1E0529601900D927C
:104AE0002A95E1F726E1E6E6F1E0DC015E96019029
:104AF0000D922A95E1F726E1ECE7F1E0DC01D4968E
:104B000001900D922A95E1F7DC01A65BBF4F2AE0E8
:104B1000E2E9F1E001900D922A95E1F79D8F8C8FEB
:104B2000DF91CF910C949D0C83309105C1F48A8D57
:104B30009B8DDC01ED91FC910680F781E02D0995BC
:104B4000882371F18A8D9B8D0E94C930E881F9819B
:104B50000280F381E02DCE01DF91CF910994823064
:104B6000910571F48C8D9D8DDC01ED91FC91068099
:104B7000F781E02D0995882399F08C8D9D8DE4CFE8
:104B8000049771F48E8D9F8DDC01ED91FC91068070
:104B9000F781E02D0995882319F08E8D9F8DD4CF54
:104BA000DF91CF910895CF93DF93EC0181E090E006
:104BB0009F878E87188A198A1A8A1B8A1C8A88E01E
:104BC00090E00E942D30FC019D878C87118210821D
:104BD00089E190E093838283148215821682178282
:104BE000CF010E94B4238A819B810E94840CDF91B3
:104BF000CF910C94E4090F931F93CF93DF93EC01B3
:104C000010E001E08885181740F5E12FF0E0AC8155
:104C1000BD81AE0FBF1F97968C918823C1F0CF0145
:104C2000880F991FAC85BD85A80FB91F8D919C91E8
:104C3000AE85BF8514962C91E250FA4F222349F09D
:104C40002081222331F010820E94430A0B871F5FCC
:104C5000D9CF00830E94260AF9CFDF91CF911F910F
:104C60000F9108950F931F93CF93DF93EC0110E002
:104C700001E08885181700F5212F30E0EC81FD81D7
:104C8000E20FF31F84A98823A9F0EE85FF858481B4
:104C900081110FC0C901880F991FEC85FD85E80FB0
:104CA000F91F8081918122503A4FF90110820E94B0
:104CB000430A0B871F5FDDCFDF91CF911F910F91CB
:104CC00008950F931F93CF93DF93EC0110E001E061
:104CD0008885181730F5E12FF0E0AC81BD81AE0F6B
:104CE000BF1F97968C918823B1F0AC85BD85AE0F20
:104CF000BF1F8C91833071F0AE85BF8514969C9157
:104D0000E250FA4F992349F09081992331F01082B3
:104D10000E9477150B871F5FDBCF00830E94E01492
:104D2000F9CFDF91CF911F910F9108950F931F93AA
:104D3000CF93DF93EC0110E001E088851817F0F4C1
:104D4000212F30E0EC81FD81E20FF31F84A988233D
:104D500099F0EC85FD85E20FF31F8081833059F0D7
:104D6000EE85FF859481911106C022503A4FF901DA
:104D700010820E9477150B871F5FDFCFDF91CF91E5
:104D80001F910F9108951F920F920FB60F92112449
:104D90008F939F938091E1009091E100937F909396
:104DA000E10083FF0FC01092E90091E09093EB00C7
:104DB0001092EC0092E39093ED0010928E0698E032
:104DC0009093F00082FF22C093E09093E9009091CD
:104DD000F200992319F09AE39093E8009091540619
:104DE000992341F09091540691509093540691115B
:104DF00001C05D9890915306992341F0909153061C
:104E0000915090935306911101C0289884FF18C0C7
:104E10008091E2008E7E81608093E2008091E100CB
:104E20008F7E8093E100809155068E7E8061809315
:104E300055069F918F910F900FBE0F901F90189560
:104E400080FFF7CF8091E2008E7E80618093E20048
:104E50008091E1008E7E8093E100809155068E7EE8
:104E60008160E5CF1F920F920FB60F921124CF925F
:104E7000DF92EF92FF920F931F932F933F934F93E5
:104E80005F936F937F938F939F93AF93BF93EF93B2
:104E9000FF93CF93DF93CDB7DEB76C97DEBFCDBF67
:104EA0001092E9008091E80083FF30C089E0FE01A4
:104EB0007596EE2EDF2E815029F09091F1009083AF
:104EC0003196F9CF289A84E68093530682EF809337
:104ED000E8008D8987FF39C09091E80090FFFCCFF2
:104EE000982F907609F033C19E894F89588D2F896C
:104EF000F88C911131C0803861F58091560680930D
:104F0000F1001092F1008EEF8093E8006C960FB6DE
:104F1000F894DEBF0FBECDBFDF91CF91FF91EF912F
:104F2000BF91AF919F918F917F916F915F914F91C1
:104F30003F912F911F910F91FF90EF90DF90CF90B5
:104F40000F900FBE0F901F9018959EEF9093E80062
:104F5000C7CF1092F100D5CF913059F48111D3CF42
:104F60004130510581F6809156068D7F809356061B
:104F7000CACF933049F48111C6CF4130510519F69B
:104F8000809156068260F2CF953041F48091E8001E
:104F900080FFFCCF20682093E300B5CF963009F066
:104FA000A8C00B8D1C8D82E01092E9001092520671
:104FB00010925106F8122EC01092500610924F0611
:104FC0000E942E061F8299E09983FA8291E09E83C7
:104FD00090EA98879AEF998720915106309152066E
:104FE000275F3F4F3C832B838D831092E900109203
:104FF0005206109251061093500600934F0649E056
:1050000050E0BE016F5F7F4F80E00E94C2050E94AA
:105010002E0679CF1093500600934F060E941C066F
:10502000DC0112960D911C910115110509F4BAC00D
:10503000D801ED91FC910480F581E02D6E2D7D2D40
:10504000C8010995009709F0A8C0F80100851185ED
:10505000EBCFF3E0FF120EC08F89882309F440C024
:10506000823061F440E86DE080EA95E00E948F05AF
:10507000811149CF81E28093EB0048CF813029F440
:1050800040E86BE084E995E0F1CF833099F70E9426
:105090001C06DC011296ED90FC908E010F5F1F4FF5
:1050A0006801E114F10479F0D701ED91FC910680DB
:1050B000F781E02DB801C7010995080F111DF7010F
:1050C000E084F184EECFD8011C92F601019000201B
:1050D000E9F73197BF016C197D0940E0C601C6CFE1
:1050E0006EE775E0FB01449150E080E80E94C20544
:1050F0000ACF973009F4BECF983021F481E0809335
:10510000F10001CF993009F0FECE837009F0B2CFE3
:10511000E9E4F6E081E031E096E32191222371F0A9
:105120008093E9003093EB00DF0111972C912093DD
:10513000EC009093ED008F5F873079F78EE78093D6
:10514000EA001092EA008F8980938E06DCCE8B8D68
:105150009C8D1092E9001092520610925106909385
:10516000500680934F060E941C06DC0112960D919A
:105170001C910115110509F47DCFD801ED91FC9129
:105180000190F081E02D6E2D7D2DC80109958111D2
:10519000BACEF80100851185ECCF181619060CF46B
:1051A000B2CE68CFF1E0FF1254CF62E875E09ACF3B
:1051B0001F920F920FB60F9211242F933F938F934C
:1051C0009F93AF93BF938091340690913506A09141
:1051D0003606B09137063091330623E0230F2D3782
:1051E00058F50196A11DB11D209333068093340616
:1051F00090933506A0933606B09337068091380613
:1052000090913906A0913A06B0913B060196A11DF6
:10521000B11D8093380690933906A0933A06B09357
:105220003B06BF91AF919F918F913F912F910F902E
:105230000FBE0F901F90189526E8230F0296A11D10
:10524000B11DD2CFFC01A385B485109771F474878A
:10525000638785859685DB0114962D913C91820F9D
:10526000931F968785870895DC018D919C911197F6
:105270000097D1F76D937C93ECCF8FEF809303076A
:10528000109205071092040710920F0710920E0754
:105290008FEF9FEFDC0180930A0790930B07A09399
:1052A0000C07B0930D07109220078EE193E09093C6
:1052B0001F0780931E0780911607811113C010925B
:1052C00011071092100780E398E0909313078093E2
:1052D00012078BE290E0909315078093140781E00A
:1052E000809316070E94450960E177E00E94222919
:1052F000109232071092310784E293E090933007C6
:1053000080932F0780912707811113C010922207E5
:10531000109221078BE598E0909324078093230750
:105320008BE390E0909326078093250781E080939C
:1053300027070E94450961E277E00E94222986E35F
:1053400093E090934A078093490780914107811128
:1053500013C010923C0710923B0786E998E09093A7
:105360003E0780933D0789E190E09093400780934A
:105370003F0781E0809341070E9445096BE377E096
:105380000E94222988E195E090937907809378071D
:1053900084E295E090937B0780937A078BEE93E00D
:1053A00090937D0780937C078FE295E090937F0731
:1053B00080937E078AE395E090938107809380072E
:1053C0008FE395E0909383078093820786E595E0CD
:1053D0009093850780938407109266071092650763
:1053E00010926F0710927007109272071092710757
:1053F0001092730781E0809374078CE393E090939D
:1054000064078093630783E697E09093590780933E
:1054100058070895CF93DF93CDB7DEB769970FB6DE
:10542000F894DEBF0FBECDBF789484B5826084BD92
:1054300084B5816084BD85B5826085BD85B5816098
:1054400085BD80916E00816080936E001092810016
:1054500080918100826080938100809181008160D1
:105460008093810080918000816080938000809192
:10547000910082608093910080919100816080937F
:105480009100809190008160809390008091C10094
:1054900084608093C1008091C10082608093C100CC
:1054A0008091C10081608093C1008091C3008160C0
:1054B0008093C3008091C00082608093C00080917F
:1054C000C20081608093C20080917A0084608093E2
:1054D0007A0080917A00826080937A0080917A00CD
:1054E000816080937A0080917A00806880937A004E
:1054F00010928E0610925606109255068091D70093
:1055000081608093D70080EA8093D80089B580615C
:1055100089BD89B5826089BD09B400FEFDCF61E017
:1055200070E080E090E00E94EB068091D8008F7CD4
:1055300080618093D8008091E000807F8093E000BC
:105540008091E1008E7E8093E1008DE08093E20007
:10555000559A209A5D982898109277078CE380934B
:1055600076071092B90084E48093BC008CE08093AD
:10557000B8001092670710926807EAE2F8E0859198
:105580009491E82EECE2F8E0F490EDE2F8E0E4919A
:10559000E0936907EEE2F8E0E491E0936A07EFE256
:1055A000F8E0E491E0936B078C01802F8E198F1542
:1055B00048F4F801649183E697E00E94760A0F5F51
:1055C0001F4FF3CF83E697E00E94840CE8E0F6E0FB
:1055D000F0937207E09371078491E9E0F6E0E491BB
:1055E000F82F319709F0B3C110926C0783E697E06A
:1055F0000E94840C80916A06811145C010925C065D
:1056000010925B068FEF80935F0680936006809315
:10561000610680936206809363068093640681E04E
:1056200080936506109267061092660610925E06D9
:1056300010925D068091780690917906892B31F45D
:1056400089E596E09093790680937806E091570675
:10565000F0915806309721F089E596E09583848390
:1056600089E596E090935806809357061092690654
:105670001092680683E992E090935A068093590647
:1056800081E080936A06259A86EA96E090935C060C
:1056900080935B0689E090E09093670680936606AE
:1056A0008091060790910707A0910807B09109071C
:1056B000843CF9E09F07A105B10520F484EC99E052
:1056C000A0E0B0E08093060790930707A093080737
:1056D000B09309071092A50681E090E00E945B312B
:1056E000F82E898382E090E00E945B31082F8A8344
:1056F00083E090E00E945B31182F8B8384E090E080
:105700000E945B318C83F092A1060093A206109355
:10571000A3068093A4062FEFF21631F00F3F21F07D
:105720001F3F11F08F3F49F41092A1061092A2067C
:105730001092A30684E18093A4068091A106809331
:10574000030771ECA72E76E0B72EEBEDF6E0119291
:105750001486118E86E0E83EF807C9F78DE0ECE983
:10576000F1E0DE01119601900D928A95E1F7DE01DC
:1057700011967D016E01BEE0CB0ED11C63E2462E78
:10578000512C612C712C9924939482E190E00E9419
:105790002D308C01F70181917F01D8018C93F801A4
:1057A000418252826382748295829682D5010D93E2
:1057B0001D935D0190E0FC01E751FA4F2491FC013B
:1057C000E653FA4FE491EE23D1F08E2F90E0880F4C
:1057D000991FFC01E454FA4FA591B491FC01E255E4
:1057E000FA4F859194914FB7F8945C91322F309590
:1057F00035233C93DC01EC912E2B2C934FBFF80109
:1058000080810E9457069C0181E02115310509F431
:1058100080E0D80117968C93179716968C91882361
:1058200031F091E0232B09F090E0F80197830E947A
:10583000C707D8011A966D937D938D939C931D97FE
:1058400017962C91179718962C93189719961C92C7
:10585000F80166877787808B918BCE14DF0409F07F
:1058600094CF0E94D30781EC96E00E945917E12C57
:1058700000E0282F47E068E777E083E597E00E94A3
:10588000271C43E6A42E47E0B42E30E1232E33E05C
:10589000332E0E94D3078091860681111AC0409052
:1058A000A406512C712C612C0E94C70760937E06C0
:1058B00070937F06809380069093810640928206C3
:1058C00050928306609284067092850681E08093F0
:1058D00086060E94C70700917E0610917F062091E0
:1058E000800630918106601B710B820B930B009137
:1058F00082061091830620918406309185066017F8
:1059000071078207930778F00E94C70760937E06AD
:1059100070937F0680938006909381068091A50600
:105920008F5F8093A506E091A206EB3018F5F0E0BA
:10593000E456F34D0C94FC31AB2CAF2CD22CD52C6F
:10594000D92CDD2CFE2C022D062D192D1D2D81E0CC
:1059500080936C074BCE19821A821B8204C08FEF92
:1059600089838A838B83BE016F5F7F4F86EA96E0CF
:105970000E9448059091A306992309F46EC0E1EABC
:10598000F6E0ABEDB6E08FEF2D91933008F059C003
:10599000222309F45CC0913009F011C1858386830C
:1059A000878355C08FEF8983D7CF198280E88A8398
:1059B000D4CF19821A828FEFD5CF8091A506865F4A
:1059C000898B1FEF1A8B1B8BBE016C5E7F4FCE0144
:1059D00041960E94ED048091A50689831A831B835A
:1059E000B601CE0101960E94ED04AE014C5E5F4F00
:1059F000B60186EA96E00E948304BCCF8091A5069A
:105A00008A5BDECF8091A5068858DACF9091A506F3
:105A10008AE0891B898B1FEF1A8B1B8BBE016C5E82
:105A20007F4FCE0141960E94ED048091A50681959D
:105A3000D4CF9091A50686E4ECCF9091A50688E797
:105A4000E8CF933009F0B9C0222309F4A7CF3396E9
:105A500026E0EC3BF20709F097CF90900307809186
:105A6000060790910707A0910807B0910907892BB5
:105A70008A2B8B2BD9F00E94C60600917A061091D2
:105A80007B0620917C0630917D06601B710B820B9A
:105A9000930B00910607109107072091080730919A
:105AA00009076017710782079307C8F20E94C606AC
:105AB00060937A0670937B0680937C0690937D06B4
:105AC000E0910E07F0910F07309759F040910A07C7
:105AD00050910B0760910C0770910D07892D099566
